:100000000C9435010C9452010C9452010C94520141
:100010000C9452010C9452010C9452010C94520114
:100020000C9452010C9452010C9452010C94080A45
:100030000C9452010C94BE020C94E8020C945201F0
:100040000C9452010C9452010C9452010C94AD0486
:100050000C9452016C0287016E02870187017802BD
:1000600078027802780278027802780278027802C0
:100070008701870187018701870187018701870140
:100080009F018701A102AC018701870187018701D8
:1000900087018701830266029B028701380287017C
:1000A00087018C028F027D0287019502A5018701DD
:1000B0009C017202870187018701870187018701FF
:1000C0008701BB0260020202A40287018701A70226
:1000D0005802870187016302B802B5025B02AF02D2
:1000E0008701870192028701870198020A0D6F66D6
:1000F000667365743A0A000A0D446174613A0A0035
:100100000A48616C6C6F2057656C740048616C6CB8
:100110006F2057656C74000A33000A32000A310000
:100120000A0D536D6172746965732D536F72746536
:10013000722056330A0D000A0D7477695F6572727A
:100140003A000950574D2D426C75653A00095057D9
:100150004D2D477265656E3A000A50574D2D526518
:10016000643A000A492D54696D65736C6F74733A73
:10017000000A636F6C6F75723A000964416C6C3AE7
:10018000000964423A000964473A000964523A009F
:10019000090A63683A0050726576202020202020EA
:1001A000454E5445522020202020204E6578740072
:1001B00053656E736F723A20202020204361746370
:1001C0006865723A2020202020004E4F207265641E
:1001D0006F726179656C677265626C7576696F7054
:1001E000696E62726F00011A0D01024E0D02035119
:1001F0000D0304510D04051A0D05061C0D050724F9
:100200000D0508340D060A1A0D0A0B1A0D0B0C1CED
:100210000D0C0D1A0D0D0F1A0D0F103C0D100A517B
:100220000D070A1A0D0B0E240D0E0C240D0E092CB1
:100230000D090C1A0D09206E506F733A0009436FB7
:100240006C6F757220533A000A20497320436F6C1B
:100250006F75723A0009436F6C6F757220433A00F4
:100260000A20432D506F733A000011241FBECFE5C2
:10027000D8E0DEBFCDBF10E0A0E6B0E0ECEAFFE1E1
:1002800002C005900D92AC3FB107D9F712E0ACEF78
:10029000B0E001C01D92A630B107E1F70E945C01F9
:1002A0000C94D40F0C940000C49A8B98939A89E113
:1002B00090E80E940D030895FF920F931F93789486
:1002C0000E94540180E291E00E94680382E30E9450
:1002D0000D048DE191E00E9468038AE191E00E94A3
:1002E00068030E94EE0E87E191E00E9468038CE0B3
:1002F00091E00E947F0E80E091E00E9468030E94DE
:10030000000A0E94460711E002E083E0F82E0E94F6
:100310006A0A0E94170E0E942203282F90E0FC0117
:10032000BB97EC34F10598F7E65DFF4FEE0FFF1F2A
:100330000590F491E02D09940E942C0CE8CF82E006
:1003400091E06FE10E949B09E2CF8CEF90E068E5BD
:1003500072E00E94CB08DBCF87EF90E00E94680339
:1003600082E191E00E944008809113010E94AF0356
:10037000809112010E94AF0380E20E943F038091AE
:100380001201909113010E94D8038AE00E943F035A
:10039000809115010E94AF03809114010E94AF0368
:1003A00080E20E943F0380911401909115010E9408
:1003B000D8038AE00E943F03809117010E94AF0397
:1003C000809116010E94AF0380E20E943F0380915A
:1003D0001601909117010E94D8038AE00E943F0302
:1003E000809119010E94AF03809118010E94AF0310
:1003F00080E20E943F0380911801909119010E94B0
:10040000D80385CF80912701909128010196909380
:1004100028018093270101970E94D8038BE30E9453
:100420003F0382E191E00E94400880911201909187
:1004300013010E94D8038BE30E943F0380911401B3
:10044000909115010E94D8038BE30E943F03809195
:100450001601909117010E94D8038BE30E943F037D
:1004600080911801909119010E94D8038AE074C00C
:100470008CEE90E00E9468038EE091E00E94DF071E
:1004800080910E010E94AF038AE00E943F03809199
:100490000F010E94AF038AE00E943F038091100188
:1004A0000E94AF038AE00E943F038091110131C096
:1004B00081E061E002C081E060E00E94730727CF25
:1004C0000E94880724CF82E16FEF02C082E160E0E2
:1004D00042E60E9451041BCF82E001C08FEF0E94D0
:1004E000B30A15CF80E090E061E60E94B2050FCF1D
:1004F000822F80530E94E30A0ACF8AE191E060E0F4
:100500000E94D40504CF8AE00E943F0380E20E944B
:1005100089040E94AF03FBCE0E945A0BF8CE0E94C2
:10052000620AF5CE0E94590AF2CE0E94500AEFCE1E
:100530000E94480AECCE8FE191E061E60E94AC0691
:10054000E8CF0E94170BE3CE0E94F409E0CE82E1CF
:1005500091E00E94440C805D0E943F03D8CE8091C0
:10056000C80081278093C800D2CEF092C900CFCEB8
:100570000093C900CCCE1093C900C9CE1F920F9230
:100580000FB60F9211242F938F939F93EF93FF93A6
:100590009BB12CB1E0916C01EF5FEF7180916D0127
:1005A000E81711F482E008C0892F8871E0936C018C
:1005B000F0E0E65BFE4F208380936E01FF91EF91A8
:1005C0009F918F912F910F900FBE0F901F901895B4
:1005D0001F920F920FB60F9211248F939F93EF9358
:1005E000FF9390916A0180916B01981761F0E091FF
:1005F0006B01EF5FEF71E0936B01F0E0E65DFE4FA2
:1006000080818CB901C05598FF91EF919F918F9196
:100610000F900FBE0F901F9018959C0110926A01C9
:1006200010926B0110926C0110926D0197FF03C044
:1006300082E08BB93F7730BD29B988E98AB98EE865
:1006400080BD089590916C0180916D01981719F407
:1006500020E031E012C0E0916D01EF5FEF71E093B7
:100660006D01F0E0E65BFE4F308120916E01922F2C
:1006700080E0AC01430F511D9A01C9010895282F54
:1006800090916A019F5F9F7180916B019817E1F3D0
:10069000E92FF0E0E65DFE4F208390936A01559AC2
:1006A0000895DC0111C090916A019F5F9F71809154
:1006B0006B019817E1F31196E92FF0E0E65DFE4F2C
:1006C000208390936A01559A2C91222361F7089513
:1006D000AC0110C020916A012F5F2F7180916B01D6
:1006E0002817E1F3E22FF0E0E65DFE4F90832093C0
:1006F0006A01559AFA014F5F5F4F9491992351F720
:10070000089590916A019F5F9F7180916B01981786
:10071000E1F3E92FF0E0E65DFE4F88E080839093FF
:100720006A01559A80912901E82FF0E0E370F0709A
:10073000E05AFF4F20818F5F8093290190916A01D9
:100740009F5F9F7180916B019817E1F3E92FF0E0B3
:10075000E65DFE4F208390936A01559A0895382FE5
:1007600028E050E341E337FF0EC090916A019F5F9C
:100770009F7180916B019817E1F3E92FF0E0E65D3E
:10078000FE4F40830DC090916A019F5F9F718091E1
:100790006B019817E1F3E92FF0E0E65DFE4F50831F
:1007A00090936A01559A215011F0330FDCCF0895D0
:1007B0000F931F93DF93CF93CDB7DEB728970FB674
:1007C000F894DEBF0FBECDBF8E010F5F1F4FB80183
:1007D0004AE050E00E947C0FD80111C090916A015C
:1007E0009F5F9F7180916B019817E1F31196E92F3C
:1007F000F0E0E65DFE4F208390936A01559A2C91BC
:10080000222361F728960FB6F894DEBF0FBECDBF46
:10081000CF91DF911F910F91089580B980E886BF35
:1008200084E086BF1092B2011092B101089506B61D
:1008300000FCFDCF81E08093B2011092B10186B738
:10084000816686BF089506B600FCFDCF8091B20197
:10085000089506B600FCFDCF8091B10108959C017A
:1008600006B600FCFDCF8091B2018230A1F083304A
:10087000A9F4D90120E030E005C0F901E159FE4FAB
:1008800080818D932F5F3F4F822F81508617A8F371
:100890001092B20103C086E08093B1018091B10152
:1008A000089506B600FCFDCF440F40936F0180937E
:1008B00070016093710183E08093B00106B600FC83
:1008C000FDCF81E08093B2011092B10186B78166BD
:1008D00086BF06B600FCFDCF80E0089506B600FC9A
:1008E000FDCF660F60936F018093700182E080936B
:1008F000B00106B600FCFDCF81E08093B2011092FA
:10090000B10186B7816686BF06B600FCFDCF80E0E8
:10091000089506B600FCFDCF880F816080936F01BB
:1009200081E08093B00106B600FCFDCF81E08093AA
:10093000B2011092B10186B7816686BF06B600FC8F
:10094000FDCF8091700108951F93162F0E946E04B1
:10095000812F0E9489041F9108951F920F920FB654
:100960000F9211248F939F93EF93FF9381B190E0A7
:10097000887F90708832910509F18932910554F48D
:1009800080319105C9F088319105C1F0089709F0CF
:1009900052C012C08034910581F18134910524F454
:1009A000C89709F048C041C080359105D9F0883515
:1009B000910509F040C02BC01092AF019091AF019A
:1009C0008091B001981710F082E029C09091AF019A
:1009D000E92FF0E0E159FE4F808183B99F5F90934A
:1009E000AF0111C08091AF01E82FF0E093B1E15960
:1009F000FE4F90838F5F8093AF019091AF01809104
:100A0000B001981710F085E81FC085EC1DC0E0917B
:100A1000AF01F0E083B1E159FE4F808383E0809322
:100A2000B2011092B10184E90FC081B1887F809337
:100A3000B10185EA09C088E08093B20181B1887F65
:100A40008F5F8093B10180E986BFFF91EF919F9105
:100A50008F910F900FBE0F901F901895FC0106B656
:100A600000FCFDCF613410F5808180FD04C0DF0102
:100A700020E030E00AC080936F0109C08D91F90138
:100A8000E159FE4F80832F5F3F4F2617B8F36093E5
:100A9000B00106B600FCFDCF81E08093B201109258
:100AA000B10186B7816686BF80E0089582E08093B9
:100AB000B10188E08093B20187E391E00E9468036E
:100AC0008091B1010E94AF038091B1010895682F18
:100AD0008FE80E946E040895682F85E80E946E04D6
:100AE0000895682F87E80E946E040895682F84E8AF
:100AF0000E946E040895682F86E80E946E0408958F
:100B00000F93DF93CF93CDB7DEB72D970FB6F89441
:100B1000DEBF0FBECDBF5B874A873D872C87000FA6
:100B2000098398E89A839FEF9B839C836295607FFB
:100B30008F70862B8D838B858E838A858F838D85A1
:100B400088878C858987CE01019669E00E942E05F1
:100B50002D960FB6F894DEBF0FBECDBFCF91DF91BB
:100B60000F910895DF93CF9300D000D000D0CDB780
:100B7000DEB7660F69832BE82A832FEF2B832C8344
:100B8000292F332727FD3A952D838E83CE01019699
:100B900066E00E942E0526960FB6F894DEBF0FBEC3
:100BA000CDBFCF91DF910895DF93CF93CDB7DEB75F
:100BB00029970FB6F894DEBF0FBECDBF660F6983CD
:100BC00029E82A832FEF2B832C83DC01FE01359645
:100BD0009E01265F3F4F8D918193E217F307D9F76E
:100BE000CE01019669E00E942E0529960FB6F89471
:100BF000DEBF0FBECDBFCF91DF9108958F929F9240
:100C0000AF92BF92CF92DF92EF92FF921F93DF934A
:100C1000CF93CDB7DEB72D970FB6F894DEBF0FBEDA
:100C2000CDBF6C015B014A01122F822F880F89838F
:100C30008CEF8A837E010894E11CF11CC70162E0FD
:100C40000E942E05482F8823C9F5110F11601983C2
:100C5000C70169E00E942E05482F882379F5C70156
:100C600069E00E942F04482F882341F5C114D10464
:100C700049F09A8180E02B8130E0822B932BF601A2
:100C800091838083A114B10449F09C8180E02D817F
:100C900030E0822B932BF5019183808381149104A2
:100CA00069F08F8190E087709070982F88272E814F
:100CB00030E0822B932BF40191838083842F2D9637
:100CC0000FB6F894DEBF0FBECDBFCF91DF911F915D
:100CD000FF90EF90DF90CF90BF90AF909F908F905C
:100CE0000895CF92DF92EF92FF921F93DF93CF93FD
:100CF000CDB7DEB728970FB6F894DEBF0FBECDBFD5
:100D00006C01162F862F880F898381E88A837E01E4
:100D10000894E11CF11CC70162E00E942E058823A3
:100D200069F4110F11601983C70168E00E942E0554
:100D3000882321F4C60167E00E942F0428960FB68D
:100D4000F894DEBF0FBECDBFCF91DF911F91FF9012
:100D5000EF90DF90CF9008950F931F938C010E9426
:100D60007106F80185818295869587701F910F9194
:100D70000895DF92EF92FF920F931F93DF93CF932B
:100D8000CDB7DEB72A970FB6F894DEBF0FBECDBF42
:100D90008C01D62ECE0103960E947106282F88233F
:100DA000C9F58C81F80180838D8181832E81522F3A
:100DB0005F708281807E422F441F4427441F4295EA
:100DC000407F9481937E322F3071852B832B8283D9
:100DD0002695269526952C70942B922B948380E053
:100DE00090E07E010894E11CF11CB70140E050E066
:100DF0002D2D0E94FE05282F882361F4F7018181A3
:100E00008295880F807EF80192819F71982B928342
:100E100089818383822F2A960FB6F894DEBF0FBE96
:100E2000CDBFCF91DF911F910F91FF90EF90DF9099
:100E30000895DF93CF93CDB7DEB760970FB6F894E0
:100E4000DEBF0FBECDBF582F4F7084EC89836F700B
:100E50006E556A83DE011396252F392FC901FC01D7
:100E600002C081918D938E2F851B8417D0F34E5F26
:100E7000CE010196642F0E942E0560960FB6F8945D
:100E8000DEBF0FBECDBFCF91DF910895FF920F93CC
:100E90001F93DF93CF9300D000D0CDB7DEB784ECA3
:100EA000F82EF98280E88A838B838E010F5F1F4FB3
:100EB000C80163E00E942E05F98284E98A838FEFDE
:100EC0008B838FEA8C8382E08D83C80165E00E946A
:100ED0002E050F900F900F900F90CF91DF911F91E3
:100EE0000F91FF900895DF93CF9300D00F92CDB76D
:100EF000DEB798EE99838A836B83CE01019663E017
:100F00000E942E050F900F900F90CF91DF910895C2
:100F100080E062E00E947307089580E061E00E9433
:100F200073070895DF93CF93CDB7DEB72E970FB633
:100F3000F894DEBF0FBECDBF28EE298326E02A83BA
:100F4000DC01FE0133969E01215F3F4F8D9181931D
:100F5000E217F307D9F7CE0101966EE00E942E0545
:100F60002E960FB6F894DEBF0FBECDBFCF91DF91A6
:100F700008950F931F93DF93CF9300D00F92CDB7B7
:100F8000DEB798EE9A838B838E010E5F1F4FC801E8
:100F900062E00E942E0589EE8A83C80161E00E940A
:100FA0002E05CE01019661E00E942F0489810F90E9
:100FB0000F900F90CF91DF911F910F910895EF92B5
:100FC000FF920F931F93DF93CF9300D00F92CDB773
:100FD000DEB77C0180E00E94B9078823D9F788EE4C
:100FE000898388E48A838E010F5F1F4FC80162E006
:100FF0000E942E0589EE8983C80164E00E942E05B7
:10100000C70164E00E942F040F900F900F90CF91C2
:10101000DF911F910F91FF90EF900895EF92FF9253
:101020000F931F93DF93CF9300D00F92CDB7DEB70E
:101030007C010E948D0780E00E94B9078823D9F7C0
:1010400088EE898380E48A838E010F5F1F4FC80179
:1010500062E00E942E0589EE8983C80168E00E9443
:101060002E05C70168E00E942F040F900F900F908B
:10107000CF91DF911F910F91FF90EF900895089508
:10108000CF92DF92FF920F931F93DF93CF93CDB751
:10109000DEB728970FB6F894DEBF0FBECDBF8C0128
:1010A00082E16FEF42E60E94510484EF91E00197E4
:1010B000F1F7FF246E010894C11CD11CC6010E94E7
:1010C0000E08D801ED91FC91119789819A81E80F62
:1010D000F91F1196FC93EE9312966D917C911397E4
:1010E0008B819C81680F791F13967C936E93129766
:1010F00014964D915C9115978D819E81480F591FD3
:1011000015965C934E93149716962D913C911797D4
:101110008F819885280F391F17963C932E93169729
:10112000F394B4E0FB1651F6F695E795F695E7953E
:10113000D8011196FC93EE93769567957695679511
:1011400013967C936E9312975695479556954795AF
:1011500015965C934E93149736952795369527955B
:1011600017963C932E93169784EF91E00197F1F731
:1011700082E160E042E60E94510428960FB6F8949E
:10118000DEBF0FBECDBFCF91DF911F910F91FF90BA
:10119000DF90CF9008958F929F92AF92BF92CF929F
:1011A000DF92EF92FF920F931F93DF93CF93CDB710
:1011B000DEB728970FB6F894DEBF0FBECDBF7C0117
:1011C0005B0182E16FEF42E60E94510488E893E1FF
:1011D00029E130E0F9013197F1F70197D9F78FEF65
:1011E000F7018483158212821382108211829E2C51
:1011F0008F2CC70160E046E00E9419078E010F5F47
:101200001F4FC8010E940E08DD24DA94C12E0AC0C7
:10121000DA9486E06D2D42E60E945104802F9C2DC9
:101220000E940E0889819A81A816B90688F3F701F1
:10123000D48286E060E042E60E94510489E591E0B4
:101240000E9468038D2D90E00E94D80384E06FEF28
:1012500042E60E945104802F9C2D0E940E080FEF41
:101260006E010894C11CD11C09C0015084E0602F9C
:1012700042E60E945104C6010E940E088B819C81A7
:10128000A816B90690F3F701028384E060E042E615
:101290000E9451048DE491E00E946803802F90E049
:1012A0000E94D80382E06FEF42E60E945104C6011B
:1012B0000E940E080FEF6E010894C11CD11C09C0DA
:1012C000015082E0602F42E60E945104C6010E9454
:1012D0000E088D819E81A816B90690F3F701008350
:1012E00084E060E042E60E94510482E491E00E94C2
:1012F0006803802F90E00E94D803892D982D60E02C
:1013000046E00E94190782E160E042E60E94510433
:1013100028960FB6F894DEBF0FBECDBFCF91DF91F8
:101320001F910F91FF90EF90DF90CF90BF90AF9003
:101330009F908F900895EF92FF920F931F93CF93FA
:10134000DF93EC01162F8FE0888389838A838B8358
:1013500080EF90E09D838C839F838E83998788871D
:101360009B878A87CE010E94920781E060E00E94FD
:10137000730700EFE02EF12C012F10E00E94880788
:1013800080E00E94B9078823D9F78BE40E94B9074F
:10139000992787FD9095801791077CF00894E108C4
:1013A000F108FD82EC82FF82EE82F986E886FB86F8
:1013B000EA86CE010E949207E1CF83E691E00E9487
:1013C0006803C7010E94D8038A859B8596958795F7
:1013D0009B878A87CE010E949207DF91CF911F9150
:1013E0000F91FF90EF90089583E08093BA010895E4
:1013F00090E08091B901882309F491E0892F089544
:1014000083E083BF83E482BF89B7816089BF089589
:101410001F920F920FB60F9211248F939F9383E424
:1014200082BF8091BE019091BF01892B91F0809184
:10143000BE019091BF0101979093BF018093BE01BF
:101440008091BE019091BF01892B19F481E08093B6
:10145000BA018091BC019091BD01892B91F08091DE
:10146000BC019091BD0101979093BD018093BC0197
:101470008091BC019091BD01892B19F482E0809389
:10148000BA019F918F910F900FBE0F901F901895EA
:1014900080E20E948904876260E20E946E040895DF
:1014A00080E20E94890487608F7D60E20E946E0462
:1014B000089580E20E94890487608F7E60E20E9426
:1014C0006E04089580E20E948904876160E20E94B0
:1014D0006E0408951F938091B901882319F081301B
:1014E00051F512C08091BA01833029F50E94620A39
:1014F00080E991E09093BF018093BE011092BA0100
:1015000081E08093B90117C01091BA01113069F4DC
:101510000E94590A80E991E09093BD018093BC013B
:101520001092BA011093B90106C0123021F4109242
:10153000BA011092B9011F9108958CEE91E060E616
:101540000E94AC0690E0882309F491E0892F089569
:1015500084EE91E061E60E94AC0690E0882309F4F5
:1015600091E0892F08951F93182F8CEE91E060E68B
:101570000E94AC068823C9F7212F332727FD309519
:1015800080EA90E0A901489F9001499F300D589F43
:10159000300D11248091B6019091B701280F391FA9
:1015A0003093B7012093B60115958091B801810F52
:1015B0006AE00E94490F9093B801C90160E60E9459
:1015C000B2051F910895282FA091B5018A1771F1D6
:1015D000E82FF0E0EE0FFF1FEC59FF4FB0E0AA0F2D
:1015E000BB1FAC59BF4F0190F081E02D8D919C91B4
:1015F000E81BF90B87E0E930F8071CF0E058FC40E5
:1016000006C088EFE83FF80714F4E058F34F8091E4
:10161000B3019091B4018E0F9F1F9093B4018093FA
:10162000B3012093B50161E60E94B20508958CEEE6
:1016300091E060E60E94710680917A00806180935B
:101640007A00809176008F70806A8093760086E7BA
:1016500090E060E60E94D40580E60E947B0580E869
:101660009CE060E60E94B20580E20E94890481FD50
:10167000FBCF80E60E9467058CEE91E060E60E9459
:10168000AC068823C9F71092B7011092B60180E624
:101690000E947B0580917A008F7E80937A008091F2
:1016A0007600806F8093760086E790E060E60E9487
:1016B000D405089584EE91E061E60E947106809160
:1016C0007F00806180937F0080917B008F70806AB3
:1016D00080937B008BE790E061E60E94D40581E671
:1016E0000E947B0580E89CE061E60E94B20580E2F2
:1016F0000E94890480FDFBCF81E60E94670584EE8D
:1017000091E061E60E94AC068823C9F71092B5010A
:101710001092B4011092B30181E60E947B05809182
:101720007F008F7E80937F0080917B00806F80930D
:101730007B008BE790E061E60E94D4050895EF926C
:10174000FF920F931F93CF93DF93DC0170E0E0E8EB
:10175000F0E033E0660F771F3A95E1F78F01060F4F
:10176000171FE80188819981AC0123E0440F551FC0
:101770002A95E1F7481B590B8D919C911197480FC1
:10178000591F93E0569547959A95E1F75093FF01BD
:101790004093FE016E5F7F4F7F01E60EF71E6250A1
:1017A0007040E70128813981C901880F991F880F8E
:1017B000991F880F991F821B930B12962D913C91B4
:1017C0001397820F931F23E0969587952A95E1F74B
:1017D0009093010280930002E60FF71F2481358168
:1017E000C901E3E0880F991FEA95E1F7821B930B8B
:1017F00014962D913C911597820F931F73E0969547
:1018000087957A95E1F79093030280930202F8019D
:1018100026813781C90163E0880F991F6A95E1F736
:10182000821B930B16962D913C911797820F931F55
:1018300023E0969587952A95E1F79093050280938A
:1018400004025183408399838883DF91CF911F9154
:101850000F91FF90EF900895E199FECF80E890E01E
:1018600060E070E048E050E00E949D0FE199FECFFB
:101870000895E199FECF80E890E060E070E048E0F4
:1018800050E00E94AD0F08952F923F924F925F92C9
:101890006F927F928F929F92AF92BF92CF92DF9280
:1018A000EF92FF920F931F93DF93CF93CDB7DEB7E5
:1018B00027970FB6F894DEBF0FBECDBF1C0150E8CE
:1018C000452E50E0552E8FEF9FEFAFEFBFE08A839C
:1018D0009B83AC83BD8319821F821E8280E991E0C5
:1018E0000E9468038E819F810E94D803D201ED90EF
:1018F000FC90F10180819181E81AF90A8BE891E06E
:101900000E946803C7010E94D8030027F7FC0095D6
:10191000102FC801B701A80197010E942A0F3B01AF
:101920004C01D2011296AD90BC901397F1018281C7
:101930009381A81AB90A86E891E00E946803C5015C
:101940000E94D803CC24B7FCC094DC2CD20114969E
:10195000ED90FC901597F10184819581E81AF90AC0
:1019600081E891E00E946803C7010E94D803002724
:10197000F7FC0095102FC601B501A60195010E9444
:101980002A0F5B016C01A60CB71CC81CD91CC8012E
:10199000B701A80197010E942A0FA60EB71EC81E04
:1019A000D91E8AE791E00E946803BB27D7FCBA954D
:1019B000AD2D9C2D8B2D0E94D8038A819B81AC81FB
:1019C000BD81A816B906CA06DB0674F481E791E06A
:1019D0000E9468038E819F810E94D803AA82BB82E5
:1019E000CC82DD829E819983AE81BF811196BF83B7
:1019F000AE83E8E0F0E04E0E5F1E199709F06ECF5F
:101A0000898127960FB6F894DEBF0FBECDBFCF9168
:101A1000DF911F910F91FF90EF90DF90CF90BF90DB
:101A2000AF909F908F907F906F905F904F903F907E
:101A30002F90089581E0089590E08091C90083304F
:101A400009F491E0892F089590E08091C9008230D7
:101A500009F491E0892F089590E08091C9008230C7
:101A600009F091E0892F089590E08091C9008430B9
:101A700009F491E0892F08950E94F809882359F00C
:101A80000E94A80A882339F08091C80090E088233A
:101A900019F491E001C090E0892F08950E94A80AEE
:101AA00008950E949D0A08951F93CF93DF93893074
:101AB00009F448C08A3080F4833049F1843030F42E
:101AC0008130F9F0823009F0AEC01EC0843009F1D7
:101AD000863009F0A8C02CC08C3009F483C08D304A
:101AE00030F48A3089F18B3009F09DC039C08E30D6
:101AF00009F44BC08E3008F47AC0803109F093C0ED
:101B000086C00E945A0B8FC00E94170B8CC08FEFAB
:101B10000CC088ED91E06FE10E949B098AEC91E096
:101B200068E572E00E94CB0881E00E94B30A7BC0A6
:101B3000E4EFF1E0119221E0EE3FF207D9F71092C5
:101B4000B80171C00E94390C80E692E00E946803DF
:101B50008091B80190E00E94D8030E94F40963C00C
:101B60008091B80190E004966AE070E00E94550F01
:101B7000FC01EC50FE4F1081812F0E94E30A85E5A5
:101B800092E00E946803812F4BC088E492E00E949B
:101B900068038091B80190E009966AE070E00E94C5
:101BA000550FFC01EC50FE4F808190E00E94D8035D
:101BB0000E94220321E080309207D1F3282F205386
:101BC0008091B80190E009966AE070E00E94550F9C
:101BD000FC01EC50FE4F20838AEC91E0622F0E94C2
:101BE0009F0B21C08AEC91E00E9440081CC08DE34D
:101BF00092E00E9468038091B801C82FD0E08AEC7F
:101C000091E00E94440CCC50DE4F888309C082E0F2
:101C10000E94B30A85E392E00E9468038091B801B4
:101C200090E00E94D803DF91CF911F9108950F9308
:101C30001F93CF93DF93C0E0D0E08E01000F111F00
:101C4000000F111FF801EB51FE4FE4918091C0018C
:101C50008E1799F4C80189519E4FFC01259134914A
:101C6000F9010995882349F00A511E4FF801849122
:101C70008093C0010E94540D04C02196C431D10547
:101C8000E1F6DF91CF911F910F910895089589E0BA
:101C90000E9489048570D9F308951F9382E10E9400
:101CA0008904182F87FF0EC083E062E10E94A4041C
:101CB0009091C4012091C601921B980F9093C4018A
:101CC0008093C60116FF09C082E062E10E94A4046D
:101CD00085FD03C081E08093C5011F9108951F9386
:101CE000182F0E94470E81E08093CC001093CD0006
:101CF0008AEC90E064E00E942E051F9108951F93E6
:101D00009C0185E08093CC0063E004C0E653FF4F64
:101D10008083612FF9012F5F3F4F8491E62FF0E020
:101D2000162F1F5F882391F7E653FF4F10820E9402
:101D3000470E8AEC90E0612F0E942E051F910895B6
:101D40001F93DC0185E08093CC0063E004C0E65380
:101D5000FF4F8083612F8D91E62FF0E0162F1F5FDC
:101D60008823A9F7E653FF4F10820E94470E8AECA2
:101D700090E0612F0E942E051F9108951F93182F48
:101D80000E94470E84E08093CC001093CD000E9407
:101D9000470E8AEC90E064E00E942E051F910895A2
:101DA00093E09093CC008093CD000E94470E8AEC84
:101DB00090E064E00E942E05089592E09093CC009C
:101DC0008093CD000E94470E8AEC90E064E00E9470
:101DD0002E05089582E00E94DD0E089581E00E94A4
:101DE000DD0E0895662311F4805801C080540E94CE
:101DF000DD0E089582E10E94890486FF0CC081E017
:101E000062E10E94A40490E025E0969587952A95CA
:101E1000E1F781700895089582E10E94890487FFA7
:101E200016C082E062E10E94A404982F8093C8014A
:101E30008091C901292F281B121614F481E003C0D8
:101E4000222319F08FEF8093C7019093C9018091ED
:101E5000C7010895629FD001739FF001829FE00D3A
:101E6000F11D649FE00DF11D929FF00D839FF00D19
:101E7000749FF00D659FF00D9927729FB00DE11DC5
:101E8000F91F639FB00DE11DF91FBD01CF011124A2
:101E90000895991B79E004C0991F961708F0961BC6
:101EA000881F7A95C9F78095089597FB092E072614
:101EB0000AD077FD04D00CD006D000201AF470951B
:101EC00061957F4F0895F6F7909581959F4F0895FE
:101ED000AA1BBB1B51E107C0AA1FBB1FA617B70750
:101EE00010F0A61BB70B881F991F5A95A9F780956C
:101EF0009095BC01CD010895FB019F01E89442300B
:101F0000C4F04532B4F44A3029F497FB1EF490959E
:101F100081959F4F642F77270E94680F805D8A33D9
:101F20000CF0895D8193CB010097A1F716F45DE277
:101F300051931082C9010C94C40FDC01CB01FC0148
:101F4000E199FECF06C0FFBBEEBBE09A31960DB221
:101F50000D9241505040B8F70895DC01CB0103C009
:101F60002D910E94B80F41505040D0F70895262F70
:101F7000E199FECF9FBB8EBB2DBB0FB6F894E29AC2
:101F8000E19A0FBE01960895DC01FC01672F719163
:101F90007723E1F7329704C07C916D93708362914F
:0C1FA000AE17BF07C8F30895F894FFCFF8
:101FAC002D5C7C2F00006401C7022B048E05F20609
:101FBC005508B9091C0BF87282000CF88282000CCF
:101FCC00500050003C005A005C017F005100F100B1
:101FDC008201A5006000170196013C019300750178
:101FEC00010122018F002601F50045011A01610152
:101FFC00D100E600E4001B012801BC00B6001D0165
:10200C00DB0093006D00CB000101240400000000F4
:10201C0000000000000000000000000000000000B4
:10202C0000000000000000000000000000000000A4
:0C203C0000000000000000000000000098
:00000001FF
