:100000000C94F1000C940E010C940E010C940E0152
:100010000C940E010C940E010C940E010C940E0124
:100020000C940E010C940E010C940E010C942C0AED
:100030000C940E010C9462020C948B020C940E0131
:100040000C940E010C940E010C940E010C940C04F3
:100050000C940E01110234011302340134011D020B
:100060001D021D021D021D021D021D021D021D0298
:1000700034013401340134013401340134013401D8
:100080004D01340145025A01340134013401340177
:100090003401340127020B023F023401DD01340137
:1000A0003401300233022102340139025301340198
:1000B0004A0117023401340134013401340134019E
:1000C00034015F020502B0014802340134014B02E1
:1000D000FD013401340108025C025902000253029E
:1000E000340134013602340134013C020A0D6F66DA
:1000F000667365743A0A000A0D446174613A0A0035
:100100000A48616C6C6F2057656C74000A0D536D62
:100110006172746965732D536F7274657220563302
:100120000A0D000A0D7477695F6572723A005072A9
:100130006576202020202020454E54455220202046
:100140002020204E6578740053656E736F723A20DC
:1001500020202020436174636865723A20202020AB
:1001600020004E4F2000726564006F726100796557
:100170006C0067726500626C750076696F0070696B
:100180006E0062726F000001C40B0102F30B0203E8
:10019000F60B0304F60B0405C40B0506C60B050796
:1001A000CD0B0508DB0B060AC40B0A0BC40B0B0CAA
:1001B000C60B0C0DC40B0D0FC40B0F10E20B100A75
:1001C000F60B070AC40B0B0ECD0B0E0CCD0B0E0954
:1001D000D40B090CC40B0A20497320436F6C6F7257
:1001E0003A0011241FBECFE5D8E0DEBFCDBF10E03E
:1001F000A0E6B0E0EEEDFCE102C005900D92AC3F50
:10020000B107D9F712E0ACEFB0E001C01D92A43005
:10021000B107E1F70E941B010C946D0E0C940000D5
:10022000C49A8B98939A89E190E80E94B00282E385
:100230000E9458030895FF920F931F9378940E9491
:1002400010018CE091E00E94040382E30E945803B5
:1002500080E091E00E9404030E94240A0E9432067A
:1002600011E082E0F82E03E00E946C0A0E949B0CD1
:100270000E94C402282F30E02B5230402C3431052C
:1002800098F7265D3F4FF901EE0FFF1F0590F4919F
:10029000E02D09940E94B70BE7CF82E091E06FE177
:1002A0000E945907E1CF8CEF90E068E572E00E9470
:1002B000A807DACF87EF90E00E94040382E191E083
:1002C0000E946C08809113010E9424038091120106
:1002D0000E94240380E20E94DF028091120190912B
:1002E00013010E9436038AE00E94DF02809115010B
:1002F0000E942403809114010E94240380E20E9442
:10030000DF0280911401909115010E9436038AE06A
:100310000E94DF02809117010E9424038091160140
:100320000E94240380E20E94DF02809116019091D6
:1003300017010E9436038AE00E94DF0280911901B2
:100340000E942403809118010E94240380E20E94ED
:10035000DF0280911801909119010E94360384CF29
:100360008BE70E94DF0282E191E00E946C0880919D
:100370001201909113010E9436038BE30E94DF0269
:1003800080911401909115010E9436038BE30E9425
:10039000DF0280911601909117010E9436038BE3D2
:1003A0000E94DF0280911801909119010E9436038A
:1003B0008DE70E94DF028AE073C08CEE90E00E941D
:1003C00004038EE091E00E94F80680910E010E94E5
:1003D00024038AE00E94DF0280910F010E9424031F
:1003E0008AE00E94DF02809110010E9424038AE0CB
:1003F0000E94DF028091110130C081E061E002C003
:1004000081E060E00E94B3062FCF0E94C8062CCF87
:1004100082E16FEF02C082E160E042E60E94CB031E
:1004200023CF82E001C08FEF0E94BE091DCF80E084
:1004300090E061E60E94610517CF80530E943D095C
:1004400013CF8AE191E060E00E9437050DCF8AE08A
:100450000E94DF0280E20E94F1030E94240304CF85
:100460000E94F80801CF0E94F809FECE0E94000AFF
:10047000FBCE0E94090AF8CE0E94120AF5CE8FE147
:1004800091E061E60E942606E8CF0E947B09ECCE4F
:100490000E941A0AE9CE82E191E00E949F0A805DE3
:1004A0000E94DF02E1CE8091C80081278093C800BE
:1004B000DBCE0093C900D8CEF092C900D5CE109300
:1004C000C900D2CE1F920F920FB60F9211242F9314
:1004D0008F939F93EF93FF938BB19CB1E0914A016F
:1004E000EF5FEF7120914B01E21741F08871E093CB
:1004F0004A01F0E0E45BFE4F908301C082E080930C
:100500006C01FF91EF919F918F912F910F900FBEF2
:100510000F901F9018951F920F920FB60F921124F3
:100520008F939F93EF93FF939091280180912901DE
:10053000981761F0E0912901EF5FEF71E0932901D5
:10054000F0E0E65DFE4F80818CB901C05598FF91C7
:10055000EF919F918F910F900FBE0F901F90189564
:10056000109228011092290110924A0110924B0119
:1005700097FF03C022E02BB99F7790BD89B988E926
:100580008AB98EE880BD089590914A0180914B010F
:10059000981789F0E0914B01EF5FEF71E0934B0109
:1005A000F0E0E45BFE4F808190916C01392F20E0F8
:1005B000280F311D02C020E031E0C901089590915B
:1005C00028019F5F9F71209129019217E1F3E92F84
:1005D000F0E0E65DFE4F808390932801559A0895E0
:1005E000EF92FF92CF93DF93E82EE7017E01F92E81
:1005F000E70102C00E94DF0289918823D9F7DF91C9
:10060000CF91FF90EF900895CF93DF93EC0102C05C
:100610000E94DF02FE01219684918823C9F7DF91B1
:10062000CF91089588E00E94DF0290912701E92F81
:10063000F0E0E370F070E05AFF4F80819F5F90938D
:1006400027010E94DF0208950F931F93082F18E0DF
:1006500007FF02C081E301C080E30E94DF02115066
:1006600011F0000FF5CF1F910F9108950F931F9375
:10067000DF93CF93CDB7DEB728970FB6F894DEBFE0
:100680000FBECDBF8E010F5F1F4FB8014AE050E093
:100690000E94150EC8010E94F00228960FB6F89429
:1006A000DEBF0FBECDBFCF91DF911F910F91089597
:1006B00080B980E886BF84E086BF10926F011092F7
:1006C0007001089506B600FCFDCF81E080936F01B4
:1006D0001092700186B7816686BF089506B600FC49
:1006E000FDCF6134C8F4FC01208120FD03C020E06F
:1006F00030E00AC02093710109C08191D901AF583F
:10070000BE4F8C932F5F3F4F2617B8F360936E0157
:100710000E94620380E0089582E08093700188E087
:1007200080936F0183E291E00E9404038091700145
:100730000E94240380917001089506B600FCFDCF4D
:1007400080916F01089506B600FCFDCF8091700185
:10075000089506B600FCFDCF20916F012230A9F06C
:100760002330B1F4FC0170E06F5F7F4F80E090E0D8
:1007700005C0DC01AF58BE4F2C912193019686171E
:100780009707B9F710926F0103C086E0809370015C
:1007900080917001089506B600FCFDCF440F409390
:1007A0007101809372016093730183E080936E0105
:1007B0000E94620306B600FCFDCF80E0089506B6F5
:1007C00000FCFDCF660F609371018093720182E09F
:1007D00080936E010E94620306B600FCFDCF80E0AC
:1007E000089506B600FCFDCF880F816080937101EB
:1007F00081E080936E010E94620306B600FCFDCF8B
:100800008091720108951F93162F0E94DF03812F9C
:100810000E94F1031F9108951F920F920FB60F923D
:1008200011248F939F93EF93FF9381B190E0887F82
:1008300090708832910519F1893291055CF480310C
:100840009105D9F088319105D1F08830910509F0F2
:1008500053C013C08034910589F1813491052CF483
:100860008833910509F048C041C080359105D9F021
:100870008835910509F040C02BC010926D01909110
:100880006D0180916E01981710F082E029C080916F
:100890006D01E82FF0E0EF58FE4F908193B98F5F24
:1008A00080936D0111C080916D01E82FF0E093B14C
:1008B000EF58FE4F90838F5F80936D0190916D0193
:1008C00080916E01981710F085E81FC085EC1DC05F
:1008D000E0916D01F0E083B1EF58FE4F808383E03B
:1008E00080936F011092700184E90FC081B1887FFD
:1008F0008093700185EA09C088E080936F0181B11F
:10090000887F8F5F8093700180E986BFFF91EF91B0
:100910009F918F910F900FBE0F901F901895DF92AF
:10092000EF92FF920F931F93DF93CF93CDB7DEB774
:1009300028970FB6F894DEBF0FBECDBF7C01D62E30
:10094000862F880F898381E88A838E010F5F1F4F6E
:10095000C80162E00E946E03882371F48D2D880F18
:1009600081608983C80168E00E946E03882321F4B6
:10097000C70167E00E94A90328960FB6F894DEBF6E
:100980000FBECDBFCF91DF911F910F91FF90EF90E0
:10099000DF900895AF92BF92CF92DF92EF92FF92D5
:1009A0000F931F93DF93CF93CDB7DEB72E970FB67C
:1009B000F894DEBF0FBECDBF5C016B017A01822FC0
:1009C000880F89838CEF8A838E010F5F1F4FC801C8
:1009D00062E02E870E946E032E858823B9F5220FD0
:1009E00021602983C80169E00E946E03882371F5A4
:1009F000C80169E00E94A903882341F5A114B1044C
:100A000049F05A8140E02B8130E0242B352BF50151
:100A100031832083C114D10449F05C8140E02D81F1
:100A200030E0242B352BF60131832083E114F104CF
:100A300069F02F8130E027703070322F22274E81ED
:100A400050E0242B352BF701318320832E960FB6EF
:100A5000F894DEBF0FBECDBFCF91DF911F910F91F4
:100A6000FF90EF90DF90CF90BF90AF900895DF930D
:100A7000CF93CDB7DEB729970FB6F894DEBF0FBE80
:100A8000CDBF660F698329E82A832FEF2B832C8340
:100A9000E82FF92FDE011596CF01059621912D93B0
:100AA000E817F907D9F7CE01019669E00E946E03B5
:100AB00029960FB6F894DEBF0FBECDBFCF91DF9160
:100AC0000895DF93CF9300D000D000D0CDB7DEB72C
:100AD000660F69832BE82A832FEF2B832C839D835A
:100AE0008E83CE01019666E00E946E0326960FB6B5
:100AF000F894DEBF0FBECDBFCF91DF910895682F70
:100B000086E80E94DF030895682F84E80E94DF03CF
:100B10000895682F87E80E94DF0308950F93DF93FD
:100B2000CF93CDB7DEB72D970FB6F894DEBF0FBECB
:100B3000CDBF5B874A873D872C87000F098398E8E4
:100B40009A839FEF9B839C836295607F8F70682B55
:100B50006D838B858E838A858F838D8588878C8531
:100B60008987CE01019669E00E946E032D960FB62B
:100B7000F894DEBF0FBECDBFCF91DF910F910895E6
:100B8000682F85E80E94DF030895682F8FE80E9490
:100B9000DF030895EF92FF920F931F93DF93CF939C
:100BA000CDB7DEB72B970FB6F894DEBF0FBECDBF23
:100BB0008C01262FCE0103962B870E948F042B8554
:100BC0008823B9F58C81F80180838D8181833E81F2
:100BD000632F6F709281907E432F441F4427441FE0
:100BE0004295407F8481837E532F5071962B952BA5
:100BF00092833695369536953C70842B832B84836F
:100C000080E090E07E010894E11CF11CB70140E017
:100C100050E00E94CA04882361F4F70121812295E3
:100C2000220F207EF80192819F71922B92839981ED
:100C300093832B960FB6F894DEBF0FBECDBFCF9136
:100C4000DF911F910F91FF90EF900895CF93DF9365
:100C5000EC010E948F048D81829586958770DF91CB
:100C6000CF910895FF920F931F93DF93CF9300D0FE
:100C700000D0CDB7DEB784ECF82EF98280E88A8305
:100C80008B838E010F5F1F4FC80163E00E946E03CC
:100C9000F98284E98A838FEF8B838FEA8C8382E0E9
:100CA0008D83C80165E00E946E030F900F900F9036
:100CB0000F90CF91DF911F910F91FF900895DF93D7
:100CC000CF93CDB7DEB760970FB6F894DEBF0FBEF7
:100CD000CDBF4F7024EC29836F706E556A83282F27
:100CE000392FD901FE013396CF01840F911D02C027
:100CF0002D912193E817F907D9F7642F6E5FCE0184
:100D000001960E946E0360960FB6F894DEBF0FBE88
:100D1000CDBFCF91DF910895DF93CF93CDB7DEB7ED
:100D20002E970FB6F894DEBF0FBECDBF28EE2983F5
:100D300026E02A83E82FF92FDE011396CF010C96C7
:100D400021912D93E817F907D9F7CE0101966EE0AE
:100D50000E946E032E960FB6F894DEBF0FBECDBF75
:100D6000CF91DF910895DF93CF9300D00F92CDB74D
:100D7000DEB798EE99838A836B83CE01019663E098
:100D80000E946E030F900F900F90CF91DF91089506
:100D900080E062E00E94B306089580E061E00E9476
:100DA000B30608950F931F93DF93CF9300D00F9254
:100DB000CDB7DEB798EE9A838B838E010E5F1F4FFF
:100DC000C80162E00E946E0389EE8A83C80161E077
:100DD0000E946E03CE01019661E00E94A903898101
:100DE0000F900F900F90CF91DF911F910F91089569
:100DF000EF92FF920F931F93DF93CF9300D00F9248
:100E0000CDB7DEB77C0180E00E94D2068823D9F7F7
:100E100088EE898388E48A838E010F5F1F4FC801A3
:100E200062E00E946E0389EE8983C80164E00E943B
:100E30006E03C70164E00E94A9030F900F900F900A
:100E4000CF91DF911F910F91FF90EF900895EF9256
:100E5000FF920F931F93DF93CF9300D00F92CDB7E4
:100E6000DEB77C010E94CD0680E00E94D206882376
:100E7000D9F788EE898380E48A838E010F5F1F4F44
:100E8000C80162E00E946E0389EE8983C80168E0B0
:100E90000E946E03C70168E00E94A9030F900F90A3
:100EA0000F90CF91DF911F910F91FF90EF900895D8
:100EB0000895EF92FF920F931F93CF93DF93EC016E
:100EC000E62E8FE0888389838A838B8380EF90E08E
:100ED0009D838C839F838E83998788879B878A874E
:100EE000CE010E948C0681E060E00E94B30600EF14
:100EF00010E0FF240E94C80680E00E94D2068823EA
:100F0000D9F78BE40E94D206992787FD90958E151C
:100F10009F0574F0015010401D830C831F830E83C6
:100F2000198708871B870A87CE010E948C06E2CFAB
:100F30008A859B85969587959B878A87CE010E9497
:100F40008C06DF91CF911F910F91FF90EF90089544
:100F50008F929F92AF92BF92CF92DF92EF92FF92C9
:100F60000F931F93DF93CF93CDB7DEB728970FB6BC
:100F7000F894DEBF0FBECDBF8C017B0182E16FEF25
:100F800042E60E94CB038FE996E8A1E081509040B1
:100F9000A040E1F700C000008FEFD80114968C93B9
:100FA000149715961C92159712961C9212971396E9
:100FB0001C9213971C9211961C925801C80160E074
:100FC00046E00E945F066E010894C11CD11CC60158
:100FD0000E94270799249A948C2CCD2C0AC09A94AD
:100FE00086E0692D42E60E94CB03882D9C2D0E944D
:100FF000270729813A81E216F30688F3F8019482E3
:1010000086E060E042E60E94CB0384E06FEF42E6B8
:101010000E94CB03882D9C2D0E94270799249A9427
:101020006E010894C11CD11C09C09A9484E0692DFA
:1010300042E60E94CB03C6010E9427078B819C8158
:10104000E816F90690F3D80112969C9284E060E0CD
:1010500042E60E94CB0382E06FEF42E60E94CB03A0
:10106000C6010E94270799249A946E010894C11C16
:10107000D11C09C09A9482E0692D42E60E94CB03FC
:10108000C6010E9427078D819E81E816F90690F31C
:10109000F801908284E060E042E60E94CB03C50143
:1010A00060E046E00E945F0682E160E042E60E9466
:1010B000CB0328960FB6F894DEBF0FBECDBFCF91FD
:1010C000DF911F910F91FF90EF90DF90CF90BF9035
:1010D000AF909F908F9008954F925F927F928F92E2
:1010E0009F92AF92BF92CF92DF92EF92FF920F93B7
:1010F0001F93DF93CF93CDB7DEB728970FB6F89441
:10110000DEBF0FBECDBF8C0182E16FEF42E60E94D1
:10111000CB038FE493EC0197F1F700C00000EFE4FC
:10112000F3EC3197F1F700C000008FE493EC0197E6
:10113000F1F700C0000074E0772EEE24FF24CC24E9
:10114000DD24AA24BB24882499242E010894411C60
:10115000511CC2010E94270789819A81E80EF91E5D
:101160008B819C81C80ED91E8D819E81A80EB91ECF
:101170008F819885880E991E7A9459F7F694E79492
:10118000F694E794F801F182E082D694C794D6945D
:10119000C794D382C282B694A794B694A794B5821A
:1011A000A48296948794969487949782868283ECFF
:1011B00099E00197F1F700C0000082E160E042E6AB
:1011C0000E94CB0328960FB6F894DEBF0FBECDBFAA
:1011D000CF91DF911F910F91FF90EF90DF90CF9013
:1011E000BF90AF909F908F907F905F904F900895A9
:1011F00082EE91E061E60E948F0480917F00806121
:1012000080937F0080917B008F70806A80937B0049
:101210008BE790E061E60E94370581E60E947F053A
:1012200080E89CE061E60E94610580E20E94F10393
:1012300080FDFBCF81E60E94C50582EE91E061E66C
:101240000E9426068823C9F71092B3011092B201BA
:101250001092B10181E60E947F0580917F008F7E10
:1012600080937F0080917B00806F80937B008BE771
:1012700090E061E60E9437050895682FE091B30180
:101280008E1771F1A82FB0E0AA0FBB1FAC59BF4F4A
:10129000F0E0EE0FFF1FEC59FF4F2D913C9111979D
:1012A00040815181241B350B87E0293038071CF021
:1012B00020583C4006C088EF283F380714F42058D7
:1012C000334F8091B1019091B201820F931F90939F
:1012D000B2018093B1016093B30161E60E946105A0
:1012E000089582EE91E061E60E94260691E0811168
:1012F00090E0892F08958AEE91E060E60E948F04C5
:1013000080917A00806180937A00809176008F705E
:10131000806A8093760086E790E060E60E94370559
:1013200080E60E947F0580E89CE060E60E946105FF
:1013300080E20E94F10381FDFBCF80E60E94C5059B
:101340008AEE91E060E60E9426068823C9F7109293
:10135000B5011092B40180E60E947F0580917A0069
:101360008F7E80937A0080917600806F80937600E4
:1013700086E790E060E60E94370508951F93182FD6
:101380008AEE91E060E60E9426068823C9F7612F65
:10139000772767FD709540EA50E0649F9001659F54
:1013A000300D749F300D11244091B4015091B5015E
:1013B000240F351F3093B5012093B401812F8595FB
:1013C0009091B601890F6AE00E94E20D9093B601F8
:1013D000C90160E60E9461051F9108958AEE91E0BF
:1013E00060E60E94260691E0811190E0892F089521
:1013F00080E20E94F103876160E20E94DF030895AA
:1014000080E20E94F10387608F7E60E20E94DF032A
:10141000089580E20E94F10387608F7D60E20E9460
:10142000DF03089580E20E94F103876260E20E9478
:10143000DF03089583E08093B801089581E09091DF
:10144000B701911180E0089583E083BF83E482BFF8
:1014500089B7816089BF08951F920F920FB60F92CE
:1014600011248F939F9383E482BF8091BC0190915C
:10147000BD01009791F08091BC019091BD01019751
:101480009093BD018093BC018091BC019091BD01FE
:10149000009719F481E08093B8018091BA0190918E
:1014A000BB01009791F08091BA019091BB01019727
:1014B0009093BB018093BA018091BA019091BB01D6
:1014C000009719F482E08093B8019F918F910F905B
:1014D0000FBE0F901F9018951F938091B70188231E
:1014E00019F0813051F512C08091B801833029F58F
:1014F0000E94F80980E991E09093BD018093BC01BE
:101500001092B80181E08093B70117C01091B80123
:10151000113069F40E94000A80E991E09093BB01C8
:101520008093BA011092B8011093B70106C012302F
:1015300021F41092B8011092B7011F9108952F92D3
:101540003F924F925F926F927F928F929F92AF9253
:10155000BF92CF92DF92EF92FF920F931F93DF9390
:10156000CF9300D000D000D0CDB7DEB7FC012080F3
:101570003180828193819A838983A481B581BC83E0
:10158000AB83E0E8F0E0FE83ED83DD24CC248FEF35
:10159000482E8FEF582E8FEF682E8FE0782EAD817A
:1015A000BE812D913C9122193309442737FD409586
:1015B000542FCA01B9010E94C30D4B015C01ED819A
:1015C000FE812281338189819A81281B390B44272E
:1015D00037FD4095542FCA01B9010E94C30D7B010C
:1015E0008C01E80CF91C0A1D1B1DAD81BE811496EF
:1015F0002D913C911597EB81FC812E1B3F0B4427CD
:1016000037FD4095542FCA01B9010E94C30DE60E63
:10161000F71E081F191FE414F504060517051CF42E
:10162000CD2C27013801D3948D819E8108969E830D
:101630008D839D2D993009F0B2CF8C2D26960FB653
:10164000F894DEBF0FBECDBFCF91DF911F910F91F8
:10165000FF90EF90DF90CF90BF90AF909F908F90D2
:101660007F906F905F904F903F902F900895FC0176
:10167000A62FB0E053E0AA0FBB1F5A95E1F7A05880
:10168000BF4F8D919C9111979C0143E0220F331F16
:101690004A95E1F7281B390B80819181280F391F6A
:1016A00073E0369527957A95E1F73093FD01209305
:1016B000FC0112964D915C911397CA0163E0880F6B
:1016C000991F6A95E1F7841B950B42815381840F22
:1016D000951F73E0969587957A95E1F79093FF01B2
:1016E0008093FE0114964D915C911597CA0163E0B9
:1016F000880F991F6A95E1F7841B950B44815581EA
:10170000840F951F73E0969587957A95E1F79093EE
:1017100001028093000216964D915C911797CA01C1
:1017200063E0880F991F6A95E1F7841B950B46814A
:101730005781840F951F43E0969587954A95E1F769
:10174000909303028093020211963C932E9313967A
:101750009C938E9312970895E199FECF80E890E0D4
:1017600060E070E048E050E00E94460E0895E19984
:10177000FECF80E890E060E070E048E050E00E943A
:10178000360EE199FECF089581E0089581E09091B1
:10179000C900933009F080E0089581E09091C9007C
:1017A000923009F080E0089581E09091C900923074
:1017B00009F480E0089581E09091C900943009F027
:1017C00080E008950E941E0A882349F00E94710952
:1017D000882339F09091C80081E0992319F080E0C6
:1017E000089580E008950E94710908950E94EE090D
:1017F0000895CF93DF93893009F445C08A3080F48F
:10180000833041F1843030F48130F1F0823009F0DE
:101810008FC01DC0843001F1863009F089C029C015
:101820008C3009F471C08D3030F48A3071F18B3016
:1018300009F07EC02DC08E30D1F18E3008F469C021
:10184000803109F075C071C00E94F80871C00E9413
:101850007B096EC08FEF6AC086ED91E06FE10E9458
:10186000590780ED91E068E572E00E94A80781E0E9
:101870005DC0E2EFF1E0119221E0EC3FF207D9F711
:101880001092B60155C00E94AC0B0E941A0A50C0BB
:101890008091B60190E004966AE070E00E94EE0D3F
:1018A0008E509E4FFC0180810E943D0941C086ED13
:1018B00091E00E9404038091B60190E009966AE0ED
:1018C00070E00E94EE0D8E509E4FFC01808190E0F2
:1018D0000E9436030E94C402F1E080309F07D1F3DA
:1018E000482F40538091B60190E009966AE070E07D
:1018F0000E94EE0DFC01EE50FE4F408388EC91E01B
:10190000642F0E94370B14C088EC91E00E946C0891
:101910000FC08091B601C82FD0E088EC91E00E9402
:101920009F0ACE50DE4F888303C082E00E94BE092A
:10193000DF91CF9108950F931F93CF93DF93C0E072
:10194000D0E08E01000F111F000F111FF801EA57A0
:10195000FE4FE4918091BE018E1791F4F801E85793
:10196000FE4F85919491FC010995882349F0095710
:101970001E4FF80184918093BE010E94F90B04C0B0
:101980002196C431D105E9F6DF91CF911F910F91D6
:101990000895089589E00E94F1038570D9F30895B0
:1019A000DF93CF930F92CDB7DEB789830E94CA0C25
:1019B00091E09093CC0089818093CD008AEC90E0F7
:1019C00064E00E946E030F90CF91DF910895DF9342
:1019D000CF930F92CDB7DEB725E02093CC0063E024
:1019E00004C026533F4FD901EC93FC010196E491CA
:1019F000262F30E06F5FEE23A1F726533F4FF9010A
:101A0000108269830E94CA0C8AEC90E069810E946E
:101A10006E030F90CF91DF910895DF93CF930F92D4
:101A2000CDB7DEB7FC0185E08093CC0063E004C055
:101A300026533F4FD9018C938191262F30E06F5F61
:101A40008823B1F726533F4FF901108269830E9422
:101A5000CA0C8AEC90E069810E946E030F90CF91CE
:101A6000DF910895DF93CF930F92CDB7DEB78983CF
:101A70000E94CA0C94E09093CC0089818093CD00A1
:101A80000E94CA0C8AEC90E064E00E946E030F9002
:101A9000CF91DF91089593E09093CC008093CD0097
:101AA0000E94CA0C8AEC90E064E00E946E030895E4
:101AB00092E09093CC008093CD000E94CA0C8AECF7
:101AC00090E064E00E946E03089582E00E94580D49
:101AD000089581E00E94580D0895662311F48058FE
:101AE00001C080540E94580D08951F9382E10E9406
:101AF000F103182F87FF0EC083E062E10E94030408
:101B00009091C2012091C401921B980F9093C20141
:101B10008093C40116FF09C082E062E10E940304C1
:101B200085FD03C081E08093C3011F91089582E188
:101B30000E94F10387FF15C082E062E10E94030466
:101B40008093C6019091C701282F291B121614F407
:101B500091E003C0222319F09FEF9093C501809379
:101B6000C7018091C501089582E10E94F10386FFBB
:101B700009C081E062E10E94030491E085FF90E0EA
:101B8000892F08950895629FD001739FF001829F6D
:101B9000E00DF11D649FE00DF11D929FF00D839FFC
:101BA000F00D749FF00D659FF00D9927729FB00D99
:101BB000E11DF91F639FB00DE11DF91FBD01CF01AC
:101BC00011240895991B79E004C0991F961708F015
:101BD000961B881F7A95C9F78095089597FB092E63
:101BE00007260AD077FD04D00CD006D000201AF4C6
:101BF000709561957F4F0895F6F7909581959F4F69
:101C00000895AA1BBB1B51E107C0AA1FBB1FA61743
:101C1000B70710F0A61BB70B881F991F5A95A9F795
:101C200080959095BC01CD010895FB019F01E8943A
:101C30004230C4F04532B4F44A3029F497FB1EF424
:101C4000909581959F4F642F77270E94010E805DAC
:101C50008A330CF0895D8193CB010097A1F716F4CC
:101C60005DE251931082C9010C945D0EDC01CB0141
:101C7000FC01E199FECF06C0FFBBEEBBE09A3196B6
:101C80000DB20D9241505040B8F70895DC01CB01E0
:101C900003C02D910E94510E41505040D0F708953D
:101CA000262FE199FECF9FBB8EBB2DBB0FB6F894BC
:101CB000E29AE19A0FBE01960895DC01FC01672FBC
:101CC00071917723E1F7329704C07C916D93708313
:0E1CD0006291AE17BF07C8F30895F894FFCFD6
:101CDE002D5C7C2F00006401C7022B048E05F206DA
:101CEE005508B9091C0BF87282000CF88282000CA0
:101CFE00340039002E0042005F0189006100F700B8
:101D0E009801DB0089004501A5017801A900A50114
:101D1E00F7003F01A4003301170179017601A701F5
:101D2E00D300C500D40009015E01C600CC004101FC
:101D3E00D4008E005E00BF000101240400000000EC
:101D4E000000000000000000000000000000000085
:101D5E000000000000000000000000000000000075
:0C1D6E0000000000000000000000000069
:00000001FF
