:100000000C9426010C9443010C9443010C9443017D
:100010000C9443010C9443010C9443010C94430150
:100020000C9443010C9443010C9443010C94940AE6
:100030000C9443010C94AA020C94D3020C94430137
:100040000C9443010C9443010C9443010C9454040C
:100050000C944301590272015B0272017201650244
:100060006502650265026502650265026502650258
:1000700072017201720172017201720172017201E8
:100080008B0172018D02980172017201720172017D
:10009000720172016F02530287027201250272011E
:1000A000720178027B026902720181029101720180
:1000B00088015F02720172017201720172017201A4
:1000C0007201A7024D02EE019002720172019302C9
:1000D0004502720172015002A402A10248029B0271
:1000E000720172017E027201720184020A0D6F6652
:1000F000667365743A0A000A0D446174613A0A0035
:100100000A48616C6C6F2057656C74000A33000AF2
:1001100032000A31000A0D536D6172746965732DE6
:10012000536F727465722056330A0D000A0D74778E
:10013000695F6572723A000950574D2D426C7565C2
:100140003A000950574D2D477265656E3A000A50C6
:10015000574D2D5265643A000A492D54696D6573F7
:100160006C6F74733A000A636F6C6F75723A00506B
:10017000726576202020202020454E5445522020B4
:10018000202020204E6578740053656E736F723A9C
:100190002020202020436174636865723A2020206B
:1001A0002020004E4F2000726564006F726100795C
:1001B000656C0067726500626C750076696F00702F
:1001C000696E0062726F000001310C0102600C0266
:1001D00003630C0304630C0405310C0506330C05A2
:1001E000073A0C0508480C060A310C0A0B310C0BB7
:1001F0000C330C0C0D310C0D0F310C0F104F0C107B
:100200000A630C070A310C0B0E3A0C0E0C3A0C0E5A
:1002100009410C090C310C09206E506F733A00092A
:10022000436F6C6F757220533A000A204973204364
:100230006F6C6F75723A0009436F6C6F7572204373
:100240003A000A20432D506F733A000011241FBE5C
:10025000CFE5D8E0DEBFCDBF10E0A0E6B0E0EAEF2A
:10026000FDE102C005900D92AC3FB107D9F712E055
:10027000ACEFB0E001C01D92A630B107E1F70E94DB
:100280004D010C94FB0E0C940000C49A8B98939A29
:1002900089E190E80E94F8020895FF920F931F935E
:1002A00078940E94450185E191E00E944C0382E32D
:1002B0000E94A00382E191E00E944C038FE091E054
:1002C0000E944C038CE091E00E944C0380E091E09E
:1002D0000E944C030E948C0A0E947A0611E082E080
:1002E000F82E03E00E94D40A0E94290D0E940C03FC
:1002F000282F30E02B5230402C34310598F7265D02
:100300003F4FF901EE0FFF1F0590F491E02D099486
:100310000E94240CE7CF82E091E06FE10E94A107E8
:10032000E1CF8CEF90E068E572E00E94F707DACF4A
:1003300087EF90E00E944C0382E191E00E94D30895
:10034000809113010E946C03809112010E946C0342
:1003500080E20E94270380911201909113010E9474
:100360007E038AE00E942703809115010E946C039E
:10037000809114010E946C0380E20E942703809107
:100380001401909115010E947E038AE00E942703C8
:10039000809117010E946C03809116010E946C03EA
:1003A00080E20E94270380911601909117010E941C
:1003B0007E038AE00E942703809119010E946C034A
:1003C000809118010E946C0380E20E9427038091B3
:1003D0001801909119010E947E0384CF809127011A
:1003E000909128019C012F5F3F4F3093280120936B
:1003F00027010E947E038BE30E94270382E191E0A4
:100400000E94D30880911201909113010E947E03F3
:100410008BE30E94270380911401909115010E94A3
:100420007E038BE30E9427038091160190911701B0
:100430000E947E038BE30E94270380911801909114
:1004400019010E947E038AE073C08CEE90E00E9446
:100450004C038EE091E00E94400780910E010E94C3
:100460006C038AE00E94270380910F010E946C03B5
:100470008AE00E942703809110010E946C038AE0A9
:100480000E9427038091110130C081E061E002C029
:1004900081E060E00E94FB0625CF0E94100722CF7A
:1004A00082E16FEF02C082E160E042E60E94130445
:1004B00019CF82E001C08FEF0E94260A13CF80E09F
:1004C00090E061E60E94A9050DCF80530E94A50926
:1004D00009CF8AE191E060E00E947F0503CF8AE0C6
:1004E0000E94270380E20E9439040E946C03FACE26
:1004F0000E946009F7CE0E94600AF4CE0E94680A4A
:10050000F1CE0E94710AEECE0E947A0AEBCE8FE104
:1005100091E061E60E946E06E8CF0E94E309E2CE18
:100520000E94820ADFCE82E191E00E94070B805D8B
:100530000E942703D7CE8091C80081278093C800EE
:10054000D1CE0093C900CECEF092C900CBCE10938D
:10055000C900C8CE1F920F920FB60F9211242F938D
:100560008F939F93EF93FF938BB19CB1E0914C01DC
:10057000EF5FEF7120914D01E21741F08871E09338
:100580004C01F0E0E25BFE4F908301C082E080937B
:100590006E01FF91EF919F918F912F910F900FBE60
:1005A0000F901F9018951F920F920FB60F92112463
:1005B0008F939F93EF93FF9390912A0180912B014A
:1005C000981761F0E0912B01EF5FEF71E0932B0141
:1005D000F0E0E45DFE4F80818CB901C05598FF9139
:1005E000EF919F918F910F900FBE0F901F901895D4
:1005F00010922A0110922B0110924C0110924D0181
:1006000097FF03C022E02BB99F7790BD89B988E995
:100610008AB98EE880BD089590914C0180914D017A
:10062000981789F0E0914D01EF5FEF71E0934D0174
:10063000F0E0E25BFE4F808190916E01392F20E067
:10064000280F311D02C020E031E0C90108959091CA
:100650002A019F5F9F7120912B019217E1F3E92FEF
:10066000F0E0E45DFE4F808390932A01559A08954F
:10067000EF92FF92CF93DF93E82EE7017E01F92EF0
:10068000E70102C00E94270389918823D9F7DF91EF
:10069000CF91FF90EF900895CF93DF93EC0102C0CC
:1006A0000E942703FE01219684918823C9F7DF91D8
:1006B000CF91089588E00E94270390912901E92FA6
:1006C000F0E0E370F070E05AFF4F80819F5F9093FD
:1006D00029010E94270308950F931F93082F18E004
:1006E00007FF02C081E301C080E30E94270311508D
:1006F00011F0000FF5CF1F910F9108950F931F93E5
:10070000DF93CF93CDB7DEB728970FB6F894DEBF4F
:100710000FBECDBF8E010F5F1F4FB8014AE050E002
:100720000E94A30EC8010E94380328960FB6F894C1
:10073000DEBF0FBECDBFCF91DF911F910F91089506
:1007400080B980E886BF84E086BF10927101109264
:100750007201089506B600FCFDCF81E0809371011F
:100760001092720186B7816686BF089506B600FCB6
:10077000FDCF6134C8F4FC01208120FD03C020E0DE
:1007800030E00AC02093730109C08191D901AD58AE
:10079000BE4F8C932F5F3F4F2617B8F360937001C5
:1007A0000E94AA0380E0089582E08093720188E0AD
:1007B000809371018CE291E00E944C038091720160
:1007C0000E946C0380917201089506B600FCFDCF73
:1007D00080917101089506B600FCFDCF80917201F1
:1007E000089506B600FCFDCF209171012230A9F0DA
:1007F0002330B1F4FC0170E06F5F7F4F80E090E048
:1008000005C0DC01AD58BE4F2C912193019686178F
:100810009707B9F71092710103C086E080937201C7
:1008200080917201089506B600FCFDCF440F4093FD
:100830007301809374016093750183E0809370016C
:100840000E94AA0306B600FCFDCF80E0089506B61C
:1008500000FCFDCF660F609373018093740182E00A
:10086000809370010E94AA0306B600FCFDCF80E0D1
:10087000089506B600FCFDCF880F81608093730158
:1008800081E0809370010E94AA0306B600FCFDCFB0
:100890008091740108951F93162F0E942704812FC1
:1008A0000E9439041F9108951F920F920FB60F9264
:1008B00011248F939F93EF93FF9381B190E0887FF2
:1008C00090708832910519F1893291055CF480317C
:1008D0009105D9F088319105D1F08830910509F062
:1008E00053C013C08034910589F1813491052CF4F3
:1008F0008833910509F048C041C080359105D9F091
:100900008835910509F040C02BC010926F0190917D
:100910006F0180917001981710F082E029C08091DA
:100920006F01E82FF0E0ED58FE4F908193B98F5F93
:1009300080936F0111C080916F01E82FF0E093B1B7
:10094000ED58FE4F90838F5F80936F0190916F0100
:1009500080917001981710F085E81FC085EC1DC0CC
:10096000E0916F01F0E083B1ED58FE4F808383E0AA
:10097000809371011092720184E90FC081B1887F68
:100980008093720185EA09C088E08093710181B18A
:10099000887F8F5F8093720180E986BFFF91EF911E
:1009A0009F918F910F900FBE0F901F901895DF921F
:1009B000EF92FF920F931F93DF93CF93CDB7DEB7E4
:1009C00028970FB6F894DEBF0FBECDBF7C01D62EA0
:1009D000862F880F898381E88A838E010F5F1F4FDE
:1009E000C80162E00E94B603882371F48D2D880F40
:1009F00081608983C80168E00E94B603882321F4DE
:100A0000C70167E00E94F10328960FB6F894DEBF95
:100A10000FBECDBFCF91DF911F910F91FF90EF904F
:100A2000DF900895AF92BF92CF92DF92EF92FF9244
:100A30000F931F93DF93CF93CDB7DEB72E970FB6EB
:100A4000F894DEBF0FBECDBF5C016B017A01822F2F
:100A5000880F89838CEF8A838E010F5F1F4FC80137
:100A600062E02E870E94B6032E858823B9F5220FF7
:100A700021602983C80169E00E94B603882371F5CB
:100A8000C80169E00E94F103882341F5A114B10473
:100A900049F05A8140E02B8130E0242B352BF501C1
:100AA00031832083C114D10449F05C8140E02D8161
:100AB00030E0242B352BF60131832083E114F1043F
:100AC00069F02F8130E027703070322F22274E815D
:100AD00050E0242B352BF701318320832E960FB65F
:100AE000F894DEBF0FBECDBFCF91DF911F910F9164
:100AF000FF90EF90DF90CF90BF90AF900895DF937D
:100B0000CF93CDB7DEB729970FB6F894DEBF0FBEEF
:100B1000CDBF660F698329E82A832FEF2B832C83AF
:100B2000E82FF92FDE011596CF01059621912D931F
:100B3000E817F907D9F7CE01019669E00E94B603DC
:100B400029960FB6F894DEBF0FBECDBFCF91DF91CF
:100B50000895DF93CF9300D000D000D0CDB7DEB79B
:100B6000660F69832BE82A832FEF2B832C839D83C9
:100B70008E83CE01019666E00E94B60326960FB6DC
:100B8000F894DEBF0FBECDBFCF91DF910895682FDF
:100B900086E80E9427040895682F84E80E942704AD
:100BA0000895682F87E80E94270408950F93DF9324
:100BB000CF93CDB7DEB72D970FB6F894DEBF0FBE3B
:100BC000CDBF5B874A873D872C87000F098398E854
:100BD0009A839FEF9B839C836295607F8F70682BC5
:100BE0006D838B858E838A858F838D8588878C85A1
:100BF0008987CE01019669E00E94B6032D960FB653
:100C0000F894DEBF0FBECDBFCF91DF910F91089555
:100C1000682F85E80E9427040895682F8FE80E94B6
:100C200027040895EF92FF920F931F93DF93CF93C2
:100C3000CDB7DEB72B970FB6F894DEBF0FBECDBF92
:100C40008C01262FCE0103962B870E94D7042B857B
:100C50008823B9F58C81F80180838D8181833E8161
:100C6000632F6F709281907E432F441F4427441F4F
:100C70004295407F8481837E532F5071962B952B14
:100C800092833695369536953C70842B832B8483DE
:100C900080E090E07E010894E11CF11CB70140E087
:100CA00050E00E941205882361F4F701218122950A
:100CB000220F207EF80192819F71922B928399815D
:100CC00093832B960FB6F894DEBF0FBECDBFCF91A6
:100CD000DF911F910F91FF90EF900895CF93DF93D5
:100CE000EC010E94D7048D81829586958770DF91F3
:100CF000CF910895FF920F931F93DF93CF9300D06E
:100D000000D0CDB7DEB784ECF82EF98280E88A8374
:100D10008B838E010F5F1F4FC80163E00E94B603F3
:100D2000F98284E98A838FEF8B838FEA8C8382E058
:100D30008D83C80165E00E94B6030F900F900F905D
:100D40000F90CF91DF911F910F91FF900895DF9346
:100D5000CF93CDB7DEB760970FB6F894DEBF0FBE66
:100D6000CDBF4F7024EC29836F706E556A83282F96
:100D7000392FD901FE013396CF01840F911D02C096
:100D80002D912193E817F907D9F7642F6E5FCE01F3
:100D900001960E94B60360960FB6F894DEBF0FBEB0
:100DA000CDBFCF91DF910895DF93CF93CDB7DEB75D
:100DB0002E970FB6F894DEBF0FBECDBF28EE298365
:100DC00026E02A83E82FF92FDE011396CF010C9637
:100DD00021912D93E817F907D9F7CE0101966EE01E
:100DE0000E94B6032E960FB6F894DEBF0FBECDBF9D
:100DF000CF91DF910895DF93CF9300D00F92CDB7BD
:100E0000DEB798EE99838A836B83CE01019663E007
:100E10000E94B6030F900F900F90CF91DF9108952D
:100E200080E062E00E94FB06089580E061E00E949D
:100E3000FB0608950F931F93DF93CF9300D00F927B
:100E4000CDB7DEB798EE9A838B838E010E5F1F4F6E
:100E5000C80162E00E94B60389EE8A83C80161E09E
:100E60000E94B603CE01019661E00E94F1038981E0
:100E70000F900F900F90CF91DF911F910F910895D8
:100E8000EF92FF920F931F93DF93CF9300D00F92B7
:100E9000CDB7DEB77C0180E00E941A078823D9F71E
:100EA00088EE898388E48A838E010F5F1F4FC80113
:100EB00062E00E94B60389EE8983C80164E00E9463
:100EC000B603C70164E00E94F1030F900F900F90EA
:100ED000CF91DF911F910F91FF90EF900895EF92C6
:100EE000FF920F931F93DF93CF9300D00F92CDB754
:100EF000DEB77C010E94150780E00E941A07882354
:100F0000D9F788EE898380E48A838E010F5F1F4FB3
:100F1000C80162E00E94B60389EE8983C80168E0D7
:100F20000E94B603C70168E00E94F1030F900F9082
:100F30000F90CF91DF911F910F91FF90EF90089547
:100F40000895EF92FF920F931F93CF93DF93EC01DD
:100F5000E62E8FE0888389838A838B8380EF90E0FD
:100F60009D838C839F838E83998788879B878A87BD
:100F7000CE010E94D40681E060E00E94FB0600EFF3
:100F800010E0FF240E94100780E00E941A078823C7
:100F9000D9F78BE40E941A07992787FD90958E1543
:100FA0009F0574F0015010401D830C831F830E8336
:100FB000198708871B870A87CE010E94D406E2CFD3
:100FC00088E591E00E944C03C8010E947E038A8557
:100FD0009B85969587959B878A87CE010E94D4062C
:100FE000DF91CF911F910F91FF90EF9008958F9215
:100FF0009F92AF92BF92CF92DF92EF92FF920F93A8
:101000001F93DF93CF93CDB7DEB728970FB6F89431
:10101000DEBF0FBECDBF8C017B0182E16FEF42E6E8
:101020000E9413048FE996E8A1E081509040A0400F
:10103000E1F700C000008FEFD80114968C9314974D
:1010400015961C92159712961C92129713961C9245
:1010500013971C9211961C925801C80160E046E05B
:101060000E94A7066E010894C11CD11CC6010E94F3
:101070006F0799249A948C2CCD2C0AC09A9486E000
:10108000692D42E60E941304882D9C2D0E946F0753
:1010900029813A81E216F30688F3F801948286E00A
:1010A00060E042E60E9413048EE491E00E944C034B
:1010B000892D90E00E947E0384E06FEF42E60E945B
:1010C0001304882D9C2D0E946F0799249A946E0119
:1010D0000894C11CD11C09C09A9484E0692D42E691
:1010E0000E941304C6010E946F072B813C81E21607
:1010F000F30690F3D80112969C9284E060E042E6F9
:101100000E94130482E491E00E944C03892D90E038
:101110000E947E0382E06FEF42E60E941304C60144
:101120000E946F0799249A946E010894C11CD11CE7
:1011300009C09A9482E0692D42E60E941304C60118
:101140000E946F072D813E81E216F30690F3F801AD
:10115000908284E060E042E60E94130487E391E01D
:101160000E944C03892D90E00E947E03C50160E03F
:1011700046E00E94A70682E160E042E60E94130476
:1011800028960FB6F894DEBF0FBECDBFCF91DF918A
:101190001F910F91FF90EF90DF90CF90BF90AF9095
:1011A0009F908F900895DF92EF92FF920F931F937D
:1011B000DF93CF93CDB7DEB728970FB6F894DEBF95
:1011C0000FBECDBF8C0182E16FEF42E60E94130497
:1011D00083EF91E00197F1F700C00000F4E0DF2E0B
:1011E0007E010894E11CF11CC7010E946F07698110
:1011F0007A81D8018D919C911197680F791F119672
:101200007C936E934B815C8112968D919C91139788
:10121000480F591F13965C934E9312972D813E8170
:1012200014968D919C911597280F391F15963C9314
:101230002E9314978F8198851696ED91FC911797B0
:101240008E0F9F1F17969C938E931697DA9461F6D4
:10125000769567957695679511967C936E935695DE
:1012600047955695479513965C934E9312973695EE
:1012700027953695279515963C932E93149796951A
:1012800087959695879517969C938E931697E3EF7F
:10129000F1E03197F1F700C0000082E160E042E642
:1012A0000E94130428960FB6F894DEBF0FBECDBF80
:1012B000CF91DF911F910F91FF90EF90DF900895F4
:1012C00084EE91E061E60E94D70480917F00806106
:1012D00080937F0080917B008F70806A80937B0079
:1012E0008BE790E061E60E947F0581E60E94C705DA
:1012F00080E89CE061E60E94A90580E20E94390432
:1013000080FDFBCF81E60E940D0684EE91E061E650
:101310000E946E068823C9F71092B5011092B4019D
:101320001092B30181E60E94C70580917F008F7EF5
:1013300080937F0080917B00806F80937B008BE7A0
:1013400090E061E60E947F050895682FE091B50165
:101350008E1771F1A82FB0E0AA0FBB1FAC59BF4F79
:10136000F0E0EE0FFF1FEC59FF4F2D913C911197CC
:1013700040815181241B350B87E0293038071CF050
:1013800020583C4006C088EF283F380714F4205806
:10139000334F8091B3019091B401820F931F9093CA
:1013A000B4018093B3016093B50161E60E94A90581
:1013B000089584EE91E061E60E946E0691E081114D
:1013C00090E0892F08958CEE91E060E60E94D704AA
:1013D00080917A00806180937A00809176008F708E
:1013E000806A8093760086E790E060E60E947F0541
:1013F00080E60E94C70580E89CE060E60E94A9059F
:1014000080E20E94390481FDFBCF80E60E940D0638
:101410008CEE91E060E60E946E068823C9F7109278
:10142000B7011092B60180E60E94C70580917A004C
:101430008F7E80937A0080917600806F8093760013
:1014400086E790E060E60E947F0508951F93182FBD
:101450008CEE91E060E60E946E068823C9F7612F4A
:10146000772767FD709540EA50E0649F9001659F83
:10147000300D749F300D11244091B6015091B70189
:10148000240F351F3093B7012093B601812F859526
:101490009091B801890F6AE00E94700E9093B80194
:1014A000C90160E60E94A9051F9108958CEE91E0A4
:1014B00060E60E946E0691E0811190E0892F089508
:1014C00080E20E943904876160E20E942704089547
:1014D00080E20E94390487608F7E60E20E942704C8
:1014E000089580E20E94390487608F7D60E20E9447
:1014F0002704089580E20E943904876260E20E9416
:101500002704089583E08093BA01089581E09091C3
:10151000B901911180E0089583E083BF83E482BF25
:1015200089B7816089BF08951F920F920FB60F92FD
:1015300011248F939F9383E482BF8091BE01909189
:10154000BF01009791F08091BE019091BF0101977A
:101550009093BF018093BE018091BE019091BF0125
:10156000009719F481E08093BA018091BC019091B9
:10157000BD01009791F08091BC019091BD01019750
:101580009093BD018093BC018091BC019091BD01FD
:10159000009719F482E08093BA019F918F910F9088
:1015A0000FBE0F901F9018951F938091B90188234B
:1015B00019F0813051F512C08091BA01833029F5BC
:1015C0000E94600A80E991E09093BF018093BE0180
:1015D0001092BA0181E08093B90117C01091BA014D
:1015E000113069F40E94680A80E991E09093BD018E
:1015F0008093BC011092BA011093B90106C0123059
:1016000021F41092BA011092B9011F9108952F92FE
:101610003F924F925F926F927F928F929F92BF9272
:10162000CF92DF92EF92FF920F931F93DF93CF93AE
:1016300000D000D0CDB7DEB74C0180E8282E80E086
:10164000382ECC24DD24BB248FEF9FEFAFEFBFE01B
:1016500089839A83AB83BC83D1012D913C91F401A2
:1016600080819181281B390B442737FD4095542FE9
:10167000CA01B9010E94510E2B013C01D101129601
:101680002D913C911397F40182819381281B390B92
:10169000442737FD4095542FCA01B9010E94510ECD
:1016A0007B018C01E40CF51C061D171DD10114965D
:1016B0002D913C911597F40184819581281B390B5C
:1016C000442737FD4095542FCA01B9010E94510E9D
:1016D000E60EF71E081F191F89819A81AB81BC8114
:1016E000E816F9060A071B0764F486E691E00E94F3
:1016F0004C03C6010E947E03BC2CE982FA820B8354
:101700001C830894C11CD11CA8E0B0E02A0E3B1E2B
:10171000B9E0CB16D10409F09FCF8B2D0F900F901D
:101720000F900F90CF91DF911F910F91FF90EF904D
:10173000DF90CF90BF909F908F907F906F905F9041
:101740004F903F902F900895FC01A62FB0E053E0FA
:10175000AA0FBB1F5A95E1F7A058BF4F8D919C91DE
:1017600011979C0143E0220F331F4A95E1F7281B94
:10177000390B80819181280F391F73E036952795A9
:101780007A95E1F73093FF012093FE0112964D9177
:101790005C911397CA0163E0880F991F6A95E1F77E
:1017A000841B950B42815381840F951F73E096959E
:1017B00087957A95E1F79093010280930002149641
:1017C0004D915C911597CA0163E0880F991F6A9546
:1017D000E1F7841B950B44815581840F951F73E0BD
:1017E000969587957A95E1F790930302809302028C
:1017F00016964D915C911797CA0163E0880F991F67
:101800006A95E1F7841B950B46815781840F951FDC
:1018100043E0969587954A95E1F79093050280936A
:10182000040211963C932E9313969C938E931297D9
:101830000895E199FECF80E890E060E070E048E034
:1018400050E00E94D40E0895E199FECF80E890E028
:1018500060E070E048E050E00E94C40EE199FECFE5
:10186000089581E0089581E09091C900933009F0D6
:1018700080E0089581E09091C900923009F080E005
:10188000089581E09091C900923009F480E00895B4
:1018900081E09091C900943009F080E008950E94A1
:1018A000860A882349F00E94D909882339F090914B
:1018B000C80081E0992319F080E0089580E0089540
:1018C0000E94D90908950E94560A08951F93CF9344
:1018D000DF93893009F448C08A3080F4833049F1BD
:1018E000843030F48130F9F0823009F0AEC01EC08F
:1018F000843009F1863009F0A8C02CC08C3009F47E
:1019000083C08D3030F48A3089F18B3009F09DC06E
:1019100039C08E3009F44BC08E3008F47AC0803163
:1019200009F093C086C00E9460098FC00E94E3093D
:101930008CC08FEF0CC088ED91E06FE10E94A10791
:1019400082ED91E068E572E00E94F70781E00E9475
:10195000260A7BC0E4EFF1E0119221E0EE3FF207AE
:10196000D9F71092B80171C00E94190C82E492E07C
:101970000E944C038091B80190E00E947E030E9477
:10198000820A63C08091B80190E004966AE070E03A
:101990000E947C0E8C509E4FFC011081812F0E9472
:1019A000A50987E392E00E944C03812F4BC08AE295
:1019B00092E00E944C038091B80190E009966AE0A1
:1019C00070E00E947C0E8C509E4FFC01808190E064
:1019D0000E947E030E940C03F1E080309F07D1F348
:1019E000482F40538091B80190E009966AE070E07A
:1019F0000E947C0EFC01EC50FE4F40838AEC91E08B
:101A0000642F0E94A40B21C08AEC91E00E94D308AD
:101A10001CC08FE192E00E944C038091B801C82F56
:101A2000D0E08AEC91E00E94070BCC50DE4F888317
:101A300009C082E00E94260A87E192E00E944C03DE
:101A40008091B80190E00E947E03DF91CF911F91B9
:101A500008950F931F93CF93DF93C0E0D0E08E01E2
:101A6000000F111F000F111FF801E953FE4FE49101
:101A70008091C0018E1791F4F801E753FE4F8591D4
:101A80009491FC010995882349F008531E4FF801F1
:101A900084918093C0010E94660C04C02196C431D9
:101AA000D105E9F6DF91CF911F910F910895089527
:101AB00089E00E9439048570D9F30895DF93CF93AC
:101AC0000F92CDB7DEB789830E94580D91E09093B5
:101AD000CC0089818093CD008AEC90E064E00E9484
:101AE000B6030F90CF91DF910895DF93CF930F92BC
:101AF000CDB7DEB725E02093CC0063E004C02653C9
:101B00003F4FD901EC93FC010196E491262F30E080
:101B10006F5FEE23A1F726533F4FF90110826983CF
:101B20000E94580D8AEC90E069810E94B6030F90E4
:101B3000CF91DF910895DF93CF930F92CDB7DEB7AA
:101B4000FC0185E08093CC0063E004C026533F4F46
:101B5000D9018C938191262F30E06F5F8823B1F7F4
:101B600026533F4FF901108269830E94580D8AEC79
:101B700090E069810E94B6030F90CF91DF910895A4
:101B8000DF93CF930F92CDB7DEB789830E94580DB4
:101B900094E09093CC0089818093CD000E94580DF1
:101BA0008AEC90E064E00E94B6030F90CF91DF9141
:101BB000089593E09093CC008093CD000E94580D3F
:101BC0008AEC90E064E00E94B603089592E090935E
:101BD000CC008093CD000E94580D8AEC90E064E028
:101BE0000E94B603089582E00E94E60D089581E008
:101BF0000E94E60D0895662311F4805801C08054B8
:101C00000E94E60D08951F9382E10E943904182F67
:101C100087FF0EC083E062E10E944B049091C401F3
:101C20002091C601921B980F9093C4018093C60126
:101C300016FF09C082E062E10E944B0485FD03C0EB
:101C400081E08093C5011F91089582E10E943904CB
:101C500087FF15C082E062E10E944B048093C801B7
:101C60009091C901282F291B121614F491E003C08A
:101C7000222319F09FEF9093C7018093C9018091AF
:101C8000C701089582E10E94390486FF09C081E0FE
:101C900062E10E944B0491E085FF90E0892F089556
:101CA0000895629FD001739FF001829FE00DF11DA6
:101CB000649FE00DF11D929FF00D839FF00D749FC6
:101CC000F00D659FF00D9927729FB00DE11DF91F72
:101CD000639FB00DE11DF91FBD01CF0111240895CF
:101CE000991B79E004C0991F961708F0961B881F6E
:101CF0007A95C9F78095089597FB092E07260AD093
:101D000077FD04D00CD006D000201AF470956195B0
:101D10007F4F0895F6F7909581959F4F0895AA1BE0
:101D2000BB1B51E107C0AA1FBB1FA617B70710F0C6
:101D3000A61BB70B881F991F5A95A9F780959095F8
:101D4000BC01CD010895FB019F01E8944230C4F02D
:101D50004532B4F44A3029F497FB1EF490958195EE
:101D60009F4F642F77270E948F0E805D8A330CF07F
:101D7000895D8193CB010097A1F716F45DE2519341
:101D80001082C9010C94EB0EDC01CB01FC01E1993E
:101D9000FECF06C0FFBBEEBBE09A31960DB20D92AE
:101DA00041505040B8F70895DC01CB0103C02D919C
:101DB0000E94DF0E41505040D0F70895262FE19940
:101DC000FECF9FBB8EBB2DBB0FB6F894E29AE19A73
:101DD0000FBE01960895DC01FC01672F71917723F6
:101DE000E1F7329704C07C916D9370836291AE17D6
:0A1DF000BF07C8F30895F894FFCF71
:101DFA002D5C7C2F00006401C7022B048E05F206BD
:101E0A005508B9091C0BF87282000CF88282000C82
:101E1A00500050003C005A005C017F005100F10064
:101E2A008201A5006000170196013C01930075012B
:101E3A00010122018F002601F50045011A01610105
:101E4A00D100E600E4001B012801BC00B6001D0118
:101E5A00DB0093006D00CB000101240400000000A8
:101E6A000000000000000000000000000000000068
:101E7A000000000000000000000000000000000058
:0C1E8A000000000000000000000000004C
:00000001FF
