:100000000C94F1000C940E010C940E010C940E0152
:100010000C940E010C940E010C940E010C940E0124
:100020000C940E010C940E010C940E010C94370AE2
:100030000C940E010C946C020C9495020C940E011D
:100040000C940E010C940E010C940E010C941604E9
:100050000C940E011B0234011D02340134012702ED
:100060002702270227022702270227022702270248
:1000700034013401340134013401340134013401D8
:100080004D0134014F025A0134013401340134016D
:10009000340134013102150249023401E70134010F
:1000A00034013A023D022B02340143025301340170
:1000B0004A01210234013401340134013401340194
:1000C000340169020F02B0015202340134015502B9
:1000D0000702340134011202660263020A025D0261
:1000E0003401340140023401340146020A0D6F66C6
:1000F000667365743A0A000A0D446174613A0A0035
:100100000A48616C6C6F2057656C74000A0D536D62
:100110006172746965732D536F7274657220563302
:100120000A0D000A0D7477695F6572723A005072A9
:100130006576202020202020454E54455220202046
:100140002020204E6578740053656E736F723A20DC
:1001500020202020436174636865723A20202020AB
:1001600020004E4F2000726564006F726100796557
:100170006C0067726500626C750076696F0070696B
:100180006E0062726F000001CF0B0102FE0B0203D2
:10019000010C0304010C0405CF0B0506D10B050768
:1001A000D80B0508E60B060ACF0B0A0BCF0B0B0C7E
:1001B000D10B0C0DCF0B0D0FCF0B0F10ED0B100A49
:1001C000010C070ACF0B0B0ED80B0E0CD80B0E0927
:1001D000DF0B090CCF0B0A20497320436F6C6F7241
:1001E0003A0011241FBECFE5D8E0DEBFCDBF10E03E
:1001F000A0E6B0E0E4EFFCE102C005900D92AC3F58
:10020000B107D9F712E0ACEFB0E001C01D92A63003
:10021000B107E1F70E941B010C94780E0C940000CA
:10022000C49A8B98939A89E190E80E94BA0282E37B
:100230000E9462030895FF920F931F9378940E9487
:1002400010018CE091E00E940E0382E30E946203A1
:1002500080E091E00E940E030E942F0A0E943C065B
:1002600011E082E0F82E03E00E94770A0E94A60CBB
:100270000E94CE02282F30E02B5230402C34310522
:1002800098F7265D3F4FF901EE0FFF1F0590F4919F
:10029000E02D09940E94C20BE7CF82E091E06FE16C
:1002A0000E946307E1CF8CEF90E068E572E00E9466
:1002B000B207DACF87EF90E00E940E0382E191E06F
:1002C0000E947608809113010E942E0380911201F2
:1002D0000E942E0380E20E94E90280911201909117
:1002E00013010E9440038AE00E94E90280911501F7
:1002F0000E942E03809114010E942E0380E20E942E
:10030000E90280911401909115010E9440038AE056
:100310000E94E902809117010E942E03809116012C
:100320000E942E0380E20E94E902809116019091C2
:1003300017010E9440038AE00E94E902809119019E
:100340000E942E03809118010E942E0380E20E94D9
:10035000E90280911801909119010E94400384CF15
:1003600080912701909128019C012F5F3F4F30938E
:100370002801209327010E9440038BE30E94E90299
:1003800082E191E00E947608809112019091130120
:100390000E9440038BE30E94E90280911401909136
:1003A00015010E9440038BE30E94E902809116012F
:1003B000909117010E9440038BE30E94E902809113
:1003C0001801909119010E9440038AE073C08CEEDD
:1003D00090E00E940E038EE091E00E94020780915F
:1003E0000E010E942E038AE00E94E90280910F0113
:1003F0000E942E038AE00E94E902809110010E946F
:100400002E038AE00E94E9028091110130C081E050
:1004100061E002C081E060E00E94BD0625CF0E943D
:10042000D20622CF82E16FEF02C082E160E042E6B5
:100430000E94D50319CF82E001C08FEF0E94C90945
:1004400013CF80E090E061E60E946B050DCF8053F2
:100450000E94480909CF8AE191E060E00E944105CD
:1004600003CF8AE00E94E90280E20E94FB030E941F
:100470002E03FACE0E940309F7CE0E94030AF4CE9F
:100480000E940B0AF1CE0E94140AEECE0E941D0AB1
:10049000EBCE8FE191E061E60E943006E8CF0E944A
:1004A0008609E2CE0E94250ADFCE82E191E00E9419
:1004B000AA0A805D0E94E902D7CE8091C8008127F8
:1004C0008093C800D1CE0093C900CECEF092C9006F
:1004D000CBCE1093C900C8CE1F920F920FB60F92C9
:1004E00011242F938F939F93EF93FF938BB19CB124
:1004F000E0914C01EF5FEF7120914D01E21741F067
:100500008871E0934C01F0E0E25BFE4F908301C004
:1005100082E080936E01FF91EF919F918F912F91D7
:100520000F900FBE0F901F9018951F920F920FB64D
:100530000F9211248F939F93EF93FF9390912A0131
:1005400080912B01981761F0E0912B01EF5FEF7123
:10055000E0932B01F0E0E45DFE4F80818CB901C097
:100560005598FF91EF919F918F910F900FBE0F9033
:100570001F90189510922A0110922B0110924C0195
:1005800010924D0197FF03C022E02BB99F7790BDD9
:1005900089B988E98AB98EE880BD089590914C01A7
:1005A00080914D01981789F0E0914D01EF5FEF7157
:1005B000E0934D01F0E0E25BFE4F808190916E018F
:1005C000392F20E0280F311D02C020E031E0C901A1
:1005D000089590912A019F5F9F7120912B0192179E
:1005E000E1F3E92FF0E0E45DFE4F808390932A0170
:1005F000559A0895EF92FF92CF93DF93E82EE7018B
:100600007E01F92EE70102C00E94E9028991882348
:10061000D9F7DF91CF91FF90EF900895CF93DF93BB
:10062000EC0102C00E94E902FE0121968491882318
:10063000C9F7DF91CF91089588E00E94E902909177
:100640002901E92FF0E0E370F070E05AFF4F80815C
:100650009F5F909329010E94E90208950F931F93D1
:10066000082F18E007FF02C081E301C080E30E9469
:10067000E902115011F0000FF5CF1F910F9108956D
:100680000F931F93DF93CF93CDB7DEB728970FB6A5
:10069000F894DEBF0FBECDBF8E010F5F1F4FB801B4
:1006A0004AE050E00E94200EC8010E94FA022896FB
:1006B0000FB6F894DEBF0FBECDBFCF91DF911F9173
:1006C0000F91089580B980E886BF84E086BF1092BC
:1006D000710110927201089506B600FCFDCF81E011
:1006E000809371011092720186B7816686BF08956A
:1006F00006B600FCFDCF6134C8F4FC01208120FD6A
:1007000003C020E030E00AC02093730109C081914A
:10071000D901AD58BE4F8C932F5F3F4F2617B8F3CA
:10072000609370010E946C0380E0089582E08093E2
:10073000720188E08093710183E291E00E940E03D0
:10074000809172010E942E0380917201089506B675
:1007500000FCFDCF80917101089506B600FCFDCF2D
:1007600080917201089506B600FCFDCF20917101C1
:100770002230A9F02330B1F4FC0170E06F5F7F4FAD
:1007800080E090E005C0DC01AD58BE4F2C91219374
:10079000019686179707B9F71092710103C086E09A
:1007A0008093720180917201089506B600FCFDCF1E
:1007B000440F40937301809374016093750183E04B
:1007C000809370010E946C0306B600FCFDCF80E0B0
:1007D000089506B600FCFDCF660F60937301809309
:1007E000740182E0809370010E946C0306B600FCE5
:1007F000FDCF80E0089506B600FCFDCF880F816034
:100800008093730181E0809370010E946C0306B6AF
:1008100000FCFDCF8091740108951F93162F0E9454
:10082000E903812F0E94FB031F9108951F920F92ED
:100830000FB60F9211248F939F93EF93FF9381B183
:1008400090E0887F90708832910519F18932910586
:100850005CF480319105D9F088319105D1F0883070
:10086000910509F053C013C08034910589F181349A
:1008700091052CF48833910509F048C041C08035BA
:100880009105D9F08835910509F040C02BC0109230
:100890006F0190916F0180917001981710F082E0C4
:1008A00029C080916F01E82FF0E0ED58FE4F908154
:1008B00093B98F5F80936F0111C080916F01E82F12
:1008C000F0E093B1ED58FE4F90838F5F80936F01FE
:1008D00090916F0180917001981710F085E81FC00A
:1008E00085EC1DC0E0916F01F0E083B1ED58FE4F43
:1008F000808383E0809371011092720184E90FC0BC
:1009000081B1887F8093720185EA09C088E0809375
:10091000710181B1887F8F5F8093720180E986BF0A
:10092000FF91EF919F918F910F900FBE0F901F90AD
:100930001895DF92EF92FF920F931F93DF93CF935F
:10094000CDB7DEB728970FB6F894DEBF0FBECDBF88
:100950007C01D62E862F880F898381E88A838E01B9
:100960000F5F1F4FC80162E00E947803882371F473
:100970008D2D880F81608983C80168E00E9478030B
:10098000882321F4C70167E00E94B30328960FB6BD
:10099000F894DEBF0FBECDBFCF91DF911F910F91B5
:1009A000FF90EF90DF900895AF92BF92CF92DF92C9
:1009B000EF92FF920F931F93DF93CF93CDB7DEB7E4
:1009C0002E970FB6F894DEBF0FBECDBF5C016B0152
:1009D0007A01822F880F89838CEF8A838E010F5FC3
:1009E0001F4FC80162E02E870E9478032E8588235E
:1009F000B9F5220F21602983C80169E00E947803BC
:100A0000882371F5C80169E00E94B303882341F58A
:100A1000A114B10449F05A8140E02B8130E0242B2D
:100A2000352BF50131832083C114D10449F05C8159
:100A300040E02D8130E0242B352BF60131832083DB
:100A4000E114F10469F02F8130E027703070322F0B
:100A500022274E8150E0242B352BF7013183208350
:100A60002E960FB6F894DEBF0FBECDBFCF91DF91AB
:100A70001F910F91FF90EF90DF90CF90BF90AF90BC
:100A80000895DF93CF93CDB7DEB729970FB6F894CB
:100A9000DEBF0FBECDBF660F698329E82A832FEF23
:100AA0002B832C83E82FF92FDE011596CF010596B5
:100AB00021912D93E817F907D9F7CE01019669E046
:100AC0000E94780329960FB6F894DEBF0FBECDBF03
:100AD000CF91DF910895DF93CF9300D000D000D065
:100AE000CDB7DEB7660F69832BE82A832FEF2B8300
:100AF0002C839D838E83CE01019666E00E9478034D
:100B000026960FB6F894DEBF0FBECDBFCF91DF9112
:100B10000895682F86E80E94E9030895682F84E805
:100B20000E94E9030895682F87E80E94E903089569
:100B30000F93DF93CF93CDB7DEB72D970FB6F89411
:100B4000DEBF0FBECDBF5B874A873D872C87000F76
:100B5000098398E89A839FEF9B839C836295607FCB
:100B60008F70682B6D838B858E838A858F838D85AF
:100B700088878C858987CE01019669E00E94780379
:100B80002D960FB6F894DEBF0FBECDBFCF91DF918B
:100B90000F910895682F85E80E94E9030895682F52
:100BA0008FE80E94E9030895EF92FF920F931F933D
:100BB000DF93CF93CDB7DEB72B970FB6F894DEBF98
:100BC0000FBECDBF8C01262FCE0103962B870E942E
:100BD00099042B858823B9F58C81F80180838D8158
:100BE00081833E81632F6F709281907E432F441FDB
:100BF0004427441F4295407F8481837E532F507148
:100C0000962B952B92833695369536953C70842B92
:100C1000832B848380E090E07E010894E11CF11C2A
:100C2000B70140E050E00E94D404882361F4F7014A
:100C300021812295220F207EF80192819F71922BB3
:100C40009283998193832B960FB6F894DEBF0FBEE3
:100C5000CDBFCF91DF911F910F91FF90EF9008953D
:100C6000CF93DF93EC010E9499048D818295869544
:100C70008770DF91CF910895FF920F931F93DF93B9
:100C8000CF9300D000D0CDB7DEB784ECF82EF98238
:100C900080E88A838B838E010F5F1F4FC80163E05A
:100CA0000E947803F98284E98A838FEF8B838FEA2D
:100CB0008C8382E08D83C80165E00E9478030F90E9
:100CC0000F900F900F90CF91DF911F910F91FF9098
:100CD0000895DF93CF93CDB7DEB760970FB6F89442
:100CE000DEBF0FBECDBF4F7024EC29836F706E55F1
:100CF0006A83282F392FD901FE013396CF01840F43
:100D0000911D02C02D912193E817F907D9F7642F9F
:100D10006E5FCE0101960E94780360960FB6F8943C
:100D2000DEBF0FBECDBFCF91DF910895DF93CF938C
:100D3000CDB7DEB72E970FB6F894DEBF0FBECDBF8E
:100D400028EE298326E02A83E82FF92FDE01139667
:100D5000CF010C9621912D93E817F907D9F7CE0111
:100D600001966EE00E9478032E960FB6F894DEBFCF
:100D70000FBECDBFCF91DF910895DF93CF9300D009
:100D80000F92CDB7DEB798EE99838A836B83CE013D
:100D9000019663E00E9478030F900F900F90CF911F
:100DA000DF91089580E062E00E94BD06089580E032
:100DB00061E00E94BD0608950F931F93DF93CF93C8
:100DC00000D00F92CDB7DEB798EE9A838B838E0159
:100DD0000E5F1F4FC80162E00E94780389EE8A838C
:100DE000C80161E00E947803CE01019661E00E9493
:100DF000B30389810F900F900F90CF91DF911F91D6
:100E00000F910895EF92FF920F931F93DF93CF936B
:100E100000D00F92CDB7DEB77C0180E00E94DC06E7
:100E20008823D9F788EE898388E48A838E010F5F4F
:100E30001F4FC80162E00E94780389EE8983C801D0
:100E400064E00E947803C70164E00E94B3030F903E
:100E50000F900F90CF91DF911F910F91FF90EF9026
:100E60000895EF92FF920F931F93DF93CF9300D0DB
:100E70000F92CDB7DEB77C010E94D70680E00E94BA
:100E8000DC068823D9F788EE898380E48A838E0183
:100E90000F5F1F4FC80162E00E94780389EE8983CB
:100EA000C80168E00E947803C70168E00E94B303AC
:100EB0000F900F900F90CF91DF911F910F91FF90A6
:100EC000EF9008950895EF92FF920F931F93CF93A1
:100ED000DF93EC01E62E8FE0888389838A838B83FE
:100EE00080EF90E09D838C839F838E839987888792
:100EF0009B878A87CE010E94960681E060E00E946F
:100F0000BD0600EF10E0FF240E94D20680E00E94A0
:100F1000DC068823D9F78BE40E94DC06992787FD3D
:100F200090958E159F0574F0015010401D830C8321
:100F30001F830E83198708871B870A87CE010E94AB
:100F40009606E2CF8A859B85969587959B878A87AB
:100F5000CE010E949606DF91CF911F910F91FF90D5
:100F6000EF9008958F929F92AF92BF92CF92DF92AF
:100F7000EF92FF920F931F93DF93CF93CDB7DEB71E
:100F800028970FB6F894DEBF0FBECDBF8C017B0152
:100F900082E16FEF42E60E94D5038FE996E8A1E077
:100FA00081509040A040E1F700C000008FEFD801D1
:100FB00014968C93149715961C92159712961C9262
:100FC000129713961C9213971C9211961C9258011B
:100FD000C80160E046E00E9469066E010894C11CE9
:100FE000D11CC6010E94310799249A948C2CCD2CD7
:100FF0000AC09A9486E0692D42E60E94D503882DA6
:101000009C2D0E94310729813A81E216F30688F36C
:10101000F801948286E060E042E60E94D50384E015
:101020006FEF42E60E94D503882D9C2D0E94310768
:1010300099249A946E010894C11CD11C09C09A94F9
:1010400084E0692D42E60E94D503C6010E94310763
:101050008B819C81E816F90690F3D80112969C9238
:1010600084E060E042E60E94D50382E06FEF42E652
:101070000E94D503C6010E94310799249A946E01FB
:101080000894C11CD11C09C09A9482E0692D42E6E3
:101090000E94D503C6010E9431078D819E81E8160A
:1010A000F90690F3F801908284E060E042E60E9445
:1010B000D503C50160E046E00E94690682E160E078
:1010C00042E60E94D50328960FB6F894DEBF0FBE05
:1010D000CDBFCF91DF911F910F91FF90EF90DF90E7
:1010E000CF90BF90AF909F908F900895DF92EF9236
:1010F000FF920F931F93DF93CF93CDB7DEB728975F
:101100000FB6F894DEBF0FBECDBF8C0182E16FEF4A
:1011100042E60E94D50383EF91E00197F1F700C00A
:101120000000F4E0DF2E7E010894E11CF11CC701F1
:101130000E94310769817A81D8018D919C91119724
:10114000680F791F11967C936E934B815C81129688
:101150008D919C911397480F591F13965C934E9352
:1011600012972D813E8114968D919C911597280F91
:10117000391F15963C932E9314978F819885169658
:10118000ED91FC9117978E0F9F1F17969C938E934E
:101190001697DA9461F67695679576956795119628
:1011A0007C936E93569547955695479513965C9309
:1011B0004E931297369527953695279515963C931D
:1011C0002E931497969587959695879517969C9349
:1011D0008E931697E3EFF1E03197F1F700C000002E
:1011E00082E160E042E60E94D50328960FB6F894AB
:1011F000DEBF0FBECDBFCF91DF911F910F91FF904A
:10120000EF90DF90089584EE91E061E60E949904EA
:1012100080917F00806180937F0080917B008F7040
:10122000806A80937B008BE790E061E60E94410535
:1012300081E60E94890580E89CE061E60E946B05DA
:1012400080E20E94FB0380FDFBCF81E60E94CF0578
:1012500084EE91E061E60E9430068823C9F710927F
:10126000B5011092B4011092B30181E60E94890584
:1012700080917F008F7E80937F0080917B00806FC4
:1012800080937B008BE790E061E60E944105089522
:10129000682FE091B5018E1771F1A82FB0E0AA0F69
:1012A000BB1FAC59BF4FF0E0EE0FFF1FEC59FF4FD3
:1012B0002D913C91119740815181241B350B87E082
:1012C000293038071CF020583C4006C088EF283FE2
:1012D000380714F42058334F8091B3019091B40132
:1012E000820F931F9093B4018093B3016093B50173
:1012F00061E60E946B05089584EE91E061E60E942C
:10130000300691E0811190E0892F08958CEE91E0F4
:1013100060E60E94990480917A00806180937A004F
:10132000809176008F70806A8093760086E790E0E7
:1013300060E60E94410580E60E94890580E89CE005
:1013400060E60E946B0580E20E94FB0381FDFBCFFB
:1013500080E60E94CF058CEE91E060E60E943006A8
:101360008823C9F71092B7011092B60180E60E9457
:10137000890580917A008F7E80937A008091760033
:10138000806F8093760086E790E060E60E944105DA
:1013900008951F93182F8CEE91E060E60E943006AE
:1013A0008823C9F7612F772767FD709540EA50E0E1
:1013B000649F9001659F300D749F300D1124409102
:1013C000B6015091B701240F351F3093B701209318
:1013D000B601812F85959091B801890F6AE00E942E
:1013E000ED0D9093B801C90160E60E946B051F9155
:1013F00008958CEE91E060E60E94300691E0811144
:1014000090E0892F089580E20E94FB03876160E2EB
:101410000E94E903089580E20E94FB0387608F7EAB
:1014200060E20E94E903089580E20E94FB03876066
:101430008F7D60E20E94E903089580E20E94FB0331
:10144000876260E20E94E903089583E08093BA0115
:10145000089581E09091B901911180E0089583E0B1
:1014600083BF83E482BF89B7816089BF08951F92DB
:101470000F920FB60F9211248F939F9383E482BF34
:101480008091BE019091BF01009791F08091BE01C3
:101490009091BF0101979093BF018093BE0180910D
:1014A000BE019091BF01009719F481E08093BA01C9
:1014B0008091BC019091BD01009791F08091BC0199
:1014C0009091BD0101979093BD018093BC018091E3
:1014D000BC019091BD01009719F482E08093BA019C
:1014E0009F918F910F900FBE0F901F9018951F9393
:1014F0008091B901882319F0813051F512C0809193
:10150000BA01833029F50E94030A80E991E09093A3
:10151000BF018093BE011092BA0181E08093B901AE
:1015200017C01091BA01113069F40E940B0A80E9CA
:1015300091E09093BD018093BC011092BA01109389
:10154000B90106C0123021F41092BA011092B9010B
:101550001F9108952F923F924F925F926F927F92C8
:101560008F929F92AF92BF92CF92DF92EF92FF92B3
:101570000F931F93DF93CF9300D000D000D0CDB74F
:10158000DEB7FC0120803180828193819A83898338
:10159000A481B581BC83AB83E0E8F0E0FE83ED83FA
:1015A000DD24CC248FEF482E8FEF582E8FEF682E3E
:1015B0008FE0782EAD81BE812D913C9122193309A7
:1015C000442737FD4095542FCA01B9010E94CE0D22
:1015D0004B015C01ED81FE812281338189819A81F9
:1015E000281B390B442737FD4095542FCA01B901F8
:1015F0000E94CE0D7B018C01E80CF91C0A1D1B1DFD
:10160000AD81BE8114962D913C911597EB81FC81A3
:101610002E1B3F0B442737FD4095542FCA01B901BB
:101620000E94CE0DE60EF71E081F191FE414F504E4
:10163000060517051CF4CD2C27013801D3948D81A4
:101640009E8108969E838D839D2D993009F0B2CF9F
:101650008C2D26960FB6F894DEBF0FBECDBFCF916E
:10166000DF911F910F91FF90EF90DF90CF90BF908F
:10167000AF909F908F907F906F905F904F903F9032
:101680002F900895FC01A62FB0E053E0AA0FBB1FD6
:101690005A95E1F7A058BF4F8D919C9111979C01ED
:1016A00043E0220F331F4A95E1F7281B390B808155
:1016B0009181280F391F73E0369527957A95E1F7C8
:1016C0003093FF012093FE0112964D915C91139788
:1016D000CA0163E0880F991F6A95E1F7841B950B97
:1016E00042815381840F951F73E0969587957A9573
:1016F000E1F7909301028093000214964D915C9162
:101700001597CA0163E0880F991F6A95E1F7841B5A
:10171000950B44815581840F951F73E096958795AD
:101720007A95E1F7909303028093020216964D9109
:101730005C911797CA0163E0880F991F6A95E1F7DA
:10174000841B950B46815781840F951F43E0969526
:1017500087954A95E1F790930502809304021196CC
:101760003C932E9313969C938E9312970895E19930
:10177000FECF80E890E060E070E048E050E00E943A
:10178000510E0895E199FECF80E890E060E070E0AE
:1017900048E050E00E94410EE199FECF089581E0BB
:1017A000089581E09091C900933009F080E0089598
:1017B00081E09091C900923009F080E0089581E0C5
:1017C0009091C900923009F480E0089581E09091F1
:1017D000C900943009F080E008950E94290A882306
:1017E00049F00E947C09882339F09091C80081E07B
:1017F000992319F080E0089580E008950E947C0903
:1018000008950E94F9090895CF93DF93893009F470
:1018100045C08A3080F4833041F1843030F4813027
:10182000F1F0823009F08FC01DC0843001F18630A4
:1018300009F089C029C08C3009F471C08D3030F4B2
:101840008A3071F18B3009F07EC02DC08E30D1F11D
:101850008E3008F469C0803109F075C071C00E94F3
:10186000030971C00E9486096EC08FEF6AC088EDBF
:1018700091E06FE10E94630782ED91E068E572E01C
:101880000E94B20781E05DC0E4EFF1E0119221E037
:10189000EE3FF207D9F71092B80155C00E94B70B7E
:1018A0000E94250A50C08091B80190E004966AE039
:1018B00070E00E94F90D8C509E4FFC0180810E94C7
:1018C000480941C086ED91E00E940E038091B80165
:1018D00090E009966AE070E00E94F90D8C509E4FEE
:1018E000FC01808190E00E9440030E94CE02F1E062
:1018F00080309F07D1F3482F40538091B80190E08A
:1019000009966AE070E00E94F90DFC01EC50FE4F70
:1019100040838AEC91E0642F0E94420B14C08AEC51
:1019200091E00E9476080FC08091B801C82FD0E0E6
:101930008AEC91E00E94AA0ACC50DE4F888303C053
:1019400082E00E94C909DF91CF9108950F931F9300
:10195000CF93DF93C0E0D0E08E01000F111F000F86
:10196000111FF801EA57FE4FE4918091C0018E17D4
:1019700091F4F801E857FE4F85919491FC01099587
:10198000882349F009571E4FF80184918093C001C4
:101990000E94040C04C02196C431D105E9F6DF9100
:1019A000CF911F910F910895089589E00E94FB0344
:1019B0008570D9F30895DF93CF930F92CDB7DEB73B
:1019C00089830E94D50C91E09093CC00898180930B
:1019D000CD008AEC90E064E00E9478030F90CF91F4
:1019E000DF910895DF93CF930F92CDB7DEB725E057
:1019F0002093CC0063E004C026533F4FD901EC9301
:101A0000FC010196E491262F30E06F5FEE23A1F7F1
:101A100026533F4FF901108269830E94D50C8AEC4E
:101A200090E069810E9478030F90CF91DF91089533
:101A3000DF93CF930F92CDB7DEB7FC0185E08093A3
:101A4000CC0063E004C026533F4FD9018C938191B1
:101A5000262F30E06F5F8823B1F726533F4FF901FF
:101A6000108269830E94D50C8AEC90E069810E9403
:101A700078030F90CF91DF910895DF93CF930F926A
:101A8000CDB7DEB789830E94D50C94E09093CC004B
:101A900089818093CD000E94D50C8AEC90E064E0AF
:101AA0000E9478030F90CF91DF91089593E0909377
:101AB000CC008093CD000E94D50C8AEC90E064E0CD
:101AC0000E947803089592E09093CC008093CD001B
:101AD0000E94D50C8AEC90E064E00E94780308959F
:101AE00082E00E94630D089581E00E94630D0895D5
:101AF000662311F4805801C080540E94630D08953C
:101B00001F9382E10E94FB03182F87FF0EC083E022
:101B100062E10E940D049091C4012091C601921BC4
:101B2000980F9093C4018093C60116FF09C082E00C
:101B300062E10E940D0485FD03C081E08093C50130
:101B40001F91089582E10E94FB0387FF15C082E088
:101B500062E10E940D048093C8019091C901282F71
:101B6000291B121614F491E003C0222319F09FEFF1
:101B70009093C7018093C9018091C701089582E1C4
:101B80000E94FB0386FF09C081E062E10E940D0410
:101B900091E085FF90E0892F08950895629FD0011C
:101BA000739FF001829FE00DF11D649FE00DF11D18
:101BB000929FF00D839FF00D749FF00D659FF00DC7
:101BC0009927729FB00DE11DF91F639FB00DE11DB4
:101BD000F91FBD01CF0111240895991B79E004C0BC
:101BE000991F961708F0961B881F7A95C9F780955C
:101BF000089597FB092E07260AD077FD04D00CD054
:101C000006D000201AF4709561957F4F0895F6F77D
:101C1000909581959F4F0895AA1BBB1B51E107C06A
:101C2000AA1FBB1FA617B70710F0A61BB70B881F6C
:101C3000991F5A95A9F780959095BC01CD010895FB
:101C4000FB019F01E8944230C4F04532B4F44A30BD
:101C500029F497FB1EF4909581959F4F642F772769
:101C60000E940C0E805D8A330CF0895D8193CB015C
:101C70000097A1F716F45DE251931082C9010C940C
:101C8000680EDC01CB01FC01E199FECF06C0FFBB71
:101C9000EEBBE09A31960DB20D9241505040B8F72C
:101CA0000895DC01CB0103C02D910E945C0E4150D0
:101CB0005040D0F70895262FE199FECF9FBB8EBBF1
:101CC0002DBB0FB6F894E29AE19A0FBE01960895E3
:101CD000DC01FC01672F71917723E1F7329704C093
:101CE0007C916D9370836291AE17BF07C8F308951E
:041CF000F894FFCF96
:101CF4002D5C7C2F00006401C7022B048E05F206C4
:101D04005508B9091C0BF87282000CF88282000C89
:101D1400500050003C005A005C017F005100F1006B
:101D24008201A5006000170196013C019300750132
:101D3400010122018F002601F50045011A0161010C
:101D4400D100E600E4001B012801BC00B6001D011F
:101D5400DB0093006D00CB000101240400000000AF
:101D6400000000000000000000000000000000006F
:101D7400000000000000000000000000000000005F
:0C1D840000000000000000000000000053
:00000001FF
